{"contracts/Voting.sol":{"Voting":{"abi":[{"inputs":[{"internalType":"string[]","name":"initialProposals","type":"string[]"}],"stateMutability":"nonpayable","type":"constructor"},{"inputs":[{"internalType":"address","name":"owner","type":"address"}],"name":"OwnableInvalidOwner","type":"error"},{"inputs":[{"internalType":"address","name":"account","type":"address"}],"name":"OwnableUnauthorizedAccount","type":"error"},{"anonymous":false,"inputs":[{"indexed":true,"internalType":"address","name":"previousOwner","type":"address"},{"indexed":true,"internalType":"address","name":"newOwner","type":"address"}],"name":"OwnershipTransferred","type":"event"},{"anonymous":false,"inputs":[{"indexed":false,"internalType":"enum Voting.Phase","name":"oldPhase","type":"uint8"},{"indexed":false,"internalType":"enum Voting.Phase","name":"newPhase","type":"uint8"}],"name":"PhaseChanged","type":"event"},{"anonymous":false,"inputs":[{"indexed":true,"internalType":"uint256","name":"index","type":"uint256"},{"indexed":false,"internalType":"string","name":"proposal","type":"string"}],"name":"ProposalAdded","type":"event"},{"anonymous":false,"inputs":[{"indexed":true,"internalType":"address","name":"voter","type":"address"},{"indexed":true,"internalType":"uint256","name":"proposalIndex","type":"uint256"}],"name":"VoteCast","type":"event"},{"anonymous":false,"inputs":[{"indexed":true,"internalType":"address","name":"voter","type":"address"}],"name":"VoterRegistered","type":"event"},{"inputs":[{"internalType":"string","name":"proposal","type":"string"}],"name":"addProposal","outputs":[],"stateMutability":"nonpayable","type":"function"},{"inputs":[],"name":"advancePhase","outputs":[],"stateMutability":"nonpayable","type":"function"},{"inputs":[{"internalType":"address","name":"addr","type":"address"}],"name":"didVote","outputs":[{"internalType":"bool","name":"","type":"bool"}],"stateMutability":"view","type":"function"},{"inputs":[{"internalType":"uint256","name":"index","type":"uint256"}],"name":"getProposal","outputs":[{"internalType":"string","name":"","type":"string"}],"stateMutability":"view","type":"function"},{"inputs":[],"name":"getProposalsCount","outputs":[{"internalType":"uint256","name":"","type":"uint256"}],"stateMutability":"view","type":"function"},{"inputs":[{"internalType":"uint256","name":"index","type":"uint256"}],"name":"getVotesFor","outputs":[{"internalType":"uint256","name":"","type":"uint256"}],"stateMutability":"view","type":"function"},{"inputs":[{"internalType":"address","name":"addr","type":"address"}],"name":"isRegistered","outputs":[{"internalType":"bool","name":"","type":"bool"}],"stateMutability":"view","type":"function"},{"inputs":[],"name":"owner","outputs":[{"internalType":"address","name":"","type":"address"}],"stateMutability":"view","type":"function"},{"inputs":[],"name":"phase","outputs":[{"internalType":"enum Voting.Phase","name":"","type":"uint8"}],"stateMutability":"view","type":"function"},{"inputs":[{"internalType":"uint256","name":"","type":"uint256"}],"name":"proposals","outputs":[{"internalType":"string","name":"","type":"string"}],"stateMutability":"view","type":"function"},{"inputs":[],"name":"register","outputs":[],"stateMutability":"nonpayable","type":"function"},{"inputs":[],"name":"renounceOwnership","outputs":[],"stateMutability":"nonpayable","type":"function"},{"inputs":[{"internalType":"string[]","name":"newProposals","type":"string[]"}],"name":"resetElection","outputs":[],"stateMutability":"nonpayable","type":"function"},{"inputs":[],"name":"totalRegistered","outputs":[{"internalType":"uint256","name":"","type":"uint256"}],"stateMutability":"view","type":"function"},{"inputs":[],"name":"totalVotes","outputs":[{"internalType":"uint256","name":"","type":"uint256"}],"stateMutability":"view","type":"function"},{"inputs":[{"internalType":"address","name":"newOwner","type":"address"}],"name":"transferOwnership","outputs":[],"stateMutability":"nonpayable","type":"function"},{"inputs":[{"internalType":"uint256","name":"proposalIndex","type":"uint256"}],"name":"vote","outputs":[],"stateMutability":"nonpayable","type":"function"},{"inputs":[],"name":"winningProposal","outputs":[{"internalType":"uint256","name":"winnerIndex","type":"uint256"},{"internalType":"uint256","name":"winnerVotes","type":"uint256"}],"stateMutability":"view","type":"function"}],"evm":{"bytecode":{"linkReferences":{},"object":"60806040523480156200001157600080fd5b5060405162002a2d38038062002a2d833981810160405281019062000037919062000515565b33600073ffffffffffffffffffffffffffffffffffffffff168173ffffffffffffffffffffffffffffffffffffffff1603620000ad5760006040517f1e4fbdf7000000000000000000000000000000000000000000000000000000008152600401620000a49190620005ab565b60405180910390fd5b620000be81620001c260201b60201c565b5060008060146101000a81548160ff02191690836002811115620000e757620000e6620005c8565b5b021790555060005b8151811015620001ba576001828281518110620001115762000110620005f7565b5b60200260200101519080600181540180825580915050600190039060005260206000200160009091909190915090816200014c919062000871565b50807ff970aa486598017b8116c2beb18c50d4584ecbc3c688817f59b26796725f31bf838381518110620001855762000184620005f7565b5b60200260200101516040516200019c9190620009aa565b60405180910390a28080620001b190620009fd565b915050620000ef565b505062000a4a565b60008060009054906101000a900473ffffffffffffffffffffffffffffffffffffffff169050816000806101000a81548173ffffffffffffffffffffffffffffffffffffffff021916908373ffffffffffffffffffffffffffffffffffffffff1602179055508173ffffffffffffffffffffffffffffffffffffffff168173ffffffffffffffffffffffffffffffffffffffff167f8be0079c531659141344cd1fd0a4f28419497f9722a3daafe3b4186f6b6457e060405160405180910390a35050565b6000604051905090565b600080fd5b600080fd5b600080fd5b6000601f19601f8301169050919050565b7f4e487b7100000000000000000000000000000000000000000000000000000000600052604160045260246000fd5b620002ea826200029f565b810181811067ffffffffffffffff821117156200030c576200030b620002b0565b5b80604052505050565b60006200032162000286565b90506200032f8282620002df565b919050565b600067ffffffffffffffff821115620003525762000351620002b0565b5b602082029050602081019050919050565b600080fd5b600080fd5b600067ffffffffffffffff8211156200038b576200038a620002b0565b5b62000396826200029f565b9050602081019050919050565b60005b83811015620003c3578082015181840152602081019050620003a6565b60008484015250505050565b6000620003e6620003e0846200036d565b62000315565b90508281526020810184848401111562000405576200040462000368565b5b62000412848285620003a3565b509392505050565b600082601f8301126200043257620004316200029a565b5b815162000444848260208601620003cf565b91505092915050565b6000620004646200045e8462000334565b62000315565b905080838252602082019050602084028301858111156200048a576200048962000363565b5b835b81811015620004d857805167ffffffffffffffff811115620004b357620004b26200029a565b5b808601620004c289826200041a565b855260208501945050506020810190506200048c565b5050509392505050565b600082601f830112620004fa57620004f96200029a565b5b81516200050c8482602086016200044d565b91505092915050565b6000602082840312156200052e576200052d62000290565b5b600082015167ffffffffffffffff8111156200054f576200054e62000295565b5b6200055d84828501620004e2565b91505092915050565b600073ffffffffffffffffffffffffffffffffffffffff82169050919050565b6000620005938262000566565b9050919050565b620005a58162000586565b82525050565b6000602082019050620005c260008301846200059a565b92915050565b7f4e487b7100000000000000000000000000000000000000000000000000000000600052602160045260246000fd5b7f4e487b7100000000000000000000000000000000000000000000000000000000600052603260045260246000fd5b600081519050919050565b7f4e487b7100000000000000000000000000000000000000000000000000000000600052602260045260246000fd5b600060028204905060018216806200067957607f821691505b6020821081036200068f576200068e62000631565b5b50919050565b60008190508160005260206000209050919050565b60006020601f8301049050919050565b600082821b905092915050565b600060088302620006f97fffffffffffffffffffffffffffffffffffffffffffffffffffffffffffffffff82620006ba565b620007058683620006ba565b95508019841693508086168417925050509392505050565b6000819050919050565b6000819050919050565b6000620007526200074c62000746846200071d565b62000727565b6200071d565b9050919050565b6000819050919050565b6200076e8362000731565b620007866200077d8262000759565b848454620006c7565b825550505050565b600090565b6200079d6200078e565b620007aa81848462000763565b505050565b5b81811015620007d257620007c660008262000793565b600181019050620007b0565b5050565b601f8211156200082157620007eb8162000695565b620007f684620006aa565b8101602085101562000806578190505b6200081e6200081585620006aa565b830182620007af565b50505b505050565b600082821c905092915050565b6000620008466000198460080262000826565b1980831691505092915050565b600062000861838362000833565b9150826002028217905092915050565b6200087c8262000626565b67ffffffffffffffff811115620008985762000897620002b0565b5b620008a4825462000660565b620008b1828285620007d6565b600060209050601f831160018114620008e95760008415620008d4578287015190505b620008e0858262000853565b86555062000950565b601f198416620008f98662000695565b60005b828110156200092357848901518255600182019150602085019450602081019050620008fc565b868310156200094357848901516200093f601f89168262000833565b8355505b6001600288020188555050505b505050505050565b600082825260208201905092915050565b6000620009768262000626565b62000982818562000958565b935062000994818560208601620003a3565b6200099f816200029f565b840191505092915050565b60006020820190508181036000830152620009c6818462000969565b905092915050565b7f4e487b7100000000000000000000000000000000000000000000000000000000600052601160045260246000fd5b600062000a0a826200071d565b91507fffffffffffffffffffffffffffffffffffffffffffffffffffffffffffffffff820362000a3f5762000a3e620009ce565b5b600182019050919050565b611fd38062000a5a6000396000f3fe608060405234801561001057600080fd5b50600436106101165760003560e01c80638da5cb5b116100a2578063be25a71811610071578063be25a71814610298578063c3c5a547146102a2578063c7f758a8146102d2578063d40b65eb14610302578063f2fde38b1461033257610116565b80638da5cb5b14610220578063927416c01461023e57806398e527d31461025c578063b1c9fe6e1461027a57610116565b806329fe4047116100e957806329fe40471461018f5780632fdae3c5146101ab578063354d91de146101c7578063609ff1bd146101f7578063715018a61461021657610116565b80630121b93f1461011b578063013cf08b146101375780630d15fd77146101675780631aa3a00814610185575b600080fd5b6101356004803603810190610130919061134e565b61034e565b005b610151600480360381019061014c919061134e565b610606565b60405161015e919061140b565b60405180910390f35b61016f6106b2565b60405161017c919061143c565b60405180910390f35b61018d6106b8565b005b6101a960048036038101906101a491906114bc565b610872565b005b6101c560048036038101906101c0919061155f565b610a7a565b005b6101e160048036038101906101dc919061160a565b610b86565b6040516101ee9190611652565b60405180910390f35b6101ff610bdc565b60405161020d92919061166d565b60405180910390f35b61021e610d07565b005b610228610d1b565b60405161023591906116a5565b60405180910390f35b610246610d44565b604051610253919061143c565b60405180910390f35b610264610d4a565b604051610271919061143c565b60405180910390f35b610282610d57565b60405161028f9190611737565b60405180910390f35b6102a0610d6a565b005b6102bc60048036038101906102b7919061160a565b610ee2565b6040516102c99190611652565b60405180910390f35b6102ec60048036038101906102e7919061134e565b610f38565b6040516102f9919061140b565b60405180910390f35b61031c6004803603810190610317919061134e565b61102f565b604051610329919061143c565b60405180910390f35b61034c6004803603810190610347919061160a565b611093565b005b6001806002811115610363576103626116c0565b5b600060149054906101000a900460ff166002811115610385576103846116c0565b5b146103c5576040517f08c379a00000000000000000000000000000000000000000000000000000000081526004016103bc9061179e565b60405180910390fd5b600260003373ffffffffffffffffffffffffffffffffffffffff1673ffffffffffffffffffffffffffffffffffffffff16815260200190815260200160002060009054906101000a900460ff16610451576040517f08c379a00000000000000000000000000000000000000000000000000000000081526004016104489061180a565b60405180910390fd5b600360003373ffffffffffffffffffffffffffffffffffffffff1673ffffffffffffffffffffffffffffffffffffffff16815260200190815260200160002060009054906101000a900460ff16156104de576040517f08c379a00000000000000000000000000000000000000000000000000000000081526004016104d590611876565b60405180910390fd5b6001805490508210610525576040517f08c379a000000000000000000000000000000000000000000000000000000000815260040161051c906118e2565b60405180910390fd5b6001600360003373ffffffffffffffffffffffffffffffffffffffff1673ffffffffffffffffffffffffffffffffffffffff16815260200190815260200160002060006101000a81548160ff0219169083151502179055506004600083815260200190815260200160002060008154809291906105a190611931565b9190505550600660008154809291906105b990611931565b9190505550813373ffffffffffffffffffffffffffffffffffffffff167fa36cc2bebb74db33e9f88110a07ef56e1b31b24b4c4f51b54b1664266e29f45b60405160405180910390a35050565b6001818154811061061657600080fd5b906000526020600020016000915090508054610631906119a8565b80601f016020809104026020016040519081016040528092919081815260200182805461065d906119a8565b80156106aa5780601f1061067f576101008083540402835291602001916106aa565b820191906000526020600020905b81548152906001019060200180831161068d57829003601f168201915b505050505081565b60065481565b60008060028111156106cd576106cc6116c0565b5b600060149054906101000a900460ff1660028111156106ef576106ee6116c0565b5b1461072f576040517f08c379a00000000000000000000000000000000000000000000000000000000081526004016107269061179e565b60405180910390fd5b600260003373ffffffffffffffffffffffffffffffffffffffff1673ffffffffffffffffffffffffffffffffffffffff16815260200190815260200160002060009054906101000a900460ff16156107bc576040517f08c379a00000000000000000000000000000000000000000000000000000000081526004016107b390611a25565b60405180910390fd5b6001600260003373ffffffffffffffffffffffffffffffffffffffff1673ffffffffffffffffffffffffffffffffffffffff16815260200190815260200160002060006101000a81548160ff0219169083151502179055506005600081548092919061082790611931565b91905055503373ffffffffffffffffffffffffffffffffffffffff167fb6be2187d059cc2a55fe29e0e503b566e1e0f8c8780096e185429350acffd3dd60405160405180910390a250565b61087a611119565b600280600281111561088f5761088e6116c0565b5b600060149054906101000a900460ff1660028111156108b1576108b06116c0565b5b146108f1576040517f08c379a00000000000000000000000000000000000000000000000000000000081526004016108e89061179e565b60405180910390fd5b600160006108ff919061126c565b6000600581905550600060068190555060005b838390508110156109ee57600184848381811061093257610931611a45565b5b90506020028101906109449190611a83565b9091806001815401808255809150506001900390600052602060002001600090919290919290919290919250918261097d929190611ccc565b50807ff970aa486598017b8116c2beb18c50d4584ecbc3c688817f59b26796725f31bf8585848181106109b3576109b2611a45565b5b90506020028101906109c59190611a83565b6040516109d3929190611dd8565b60405180910390a280806109e690611931565b915050610912565b5060008060149054906101000a900460ff16905060008060146101000a81548160ff02191690836002811115610a2757610a266116c0565b5b02179055507feeb345fea22465c927333e05d324ee5b476597701d8be7e5d9aacc60e7aefbaf81600060149054906101000a900460ff16604051610a6c929190611dfc565b60405180910390a150505050565b610a82611119565b6000806002811115610a9757610a966116c0565b5b600060149054906101000a900460ff166002811115610ab957610ab86116c0565b5b14610af9576040517f08c379a0000000000000000000000000000000000000000000000000000000008152600401610af09061179e565b60405180910390fd5b6001838390918060018154018082558091505060019003906000526020600020016000909192909192909192909192509182610b36929190611ccc565b5060018080549050610b489190611e25565b7ff970aa486598017b8116c2beb18c50d4584ecbc3c688817f59b26796725f31bf8484604051610b79929190611dd8565b60405180910390a2505050565b6000600360008373ffffffffffffffffffffffffffffffffffffffff1673ffffffffffffffffffffffffffffffffffffffff16815260200190815260200160002060009054906101000a900460ff169050919050565b6000806002806002811115610bf457610bf36116c0565b5b600060149054906101000a900460ff166002811115610c1657610c156116c0565b5b14610c56576040517f08c379a0000000000000000000000000000000000000000000000000000000008152600401610c4d9061179e565b60405180910390fd5b600060018054905011610c9e576040517f08c379a0000000000000000000000000000000000000000000000000000000008152600401610c9590611ea5565b60405180910390fd5b60008060005b600180549050811015610cf9578260046000838152602001908152602001600020541115610ce657600460008281526020019081526020016000205492508091505b8080610cf190611931565b915050610ca4565b508082945094505050509091565b610d0f611119565b610d1960006111a0565b565b60008060009054906101000a900473ffffffffffffffffffffffffffffffffffffffff16905090565b60055481565b6000600180549050905090565b600060149054906101000a900460ff1681565b610d72611119565b60008060149054906101000a900460ff16905060006002811115610d9957610d986116c0565b5b600060149054906101000a900460ff166002811115610dbb57610dba6116c0565b5b03610df0576001600060146101000a81548160ff02191690836002811115610de657610de56116c0565b5b0217905550610e97565b60016002811115610e0457610e036116c0565b5b600060149054906101000a900460ff166002811115610e2657610e256116c0565b5b03610e5b576002600060146101000a81548160ff02191690836002811115610e5157610e506116c0565b5b0217905550610e96565b6040517f08c379a0000000000000000000000000000000000000000000000000000000008152600401610e8d90611f11565b60405180910390fd5b5b7feeb345fea22465c927333e05d324ee5b476597701d8be7e5d9aacc60e7aefbaf81600060149054906101000a900460ff16604051610ed7929190611dfc565b60405180910390a150565b6000600260008373ffffffffffffffffffffffffffffffffffffffff1673ffffffffffffffffffffffffffffffffffffffff16815260200190815260200160002060009054906101000a900460ff169050919050565b60606001805490508210610f81576040517f08c379a0000000000000000000000000000000000000000000000000000000008152600401610f7890611f7d565b60405180910390fd5b60018281548110610f9557610f94611a45565b5b906000526020600020018054610faa906119a8565b80601f0160208091040260200160405190810160405280929190818152602001828054610fd6906119a8565b80156110235780601f10610ff857610100808354040283529160200191611023565b820191906000526020600020905b81548152906001019060200180831161100657829003601f168201915b50505050509050919050565b60006001805490508210611078576040517f08c379a000000000000000000000000000000000000000000000000000000000815260040161106f90611f7d565b60405180910390fd5b60046000838152602001908152602001600020549050919050565b61109b611119565b600073ffffffffffffffffffffffffffffffffffffffff168173ffffffffffffffffffffffffffffffffffffffff160361110d5760006040517f1e4fbdf700000000000000000000000000000000000000000000000000000000815260040161110491906116a5565b60405180910390fd5b611116816111a0565b50565b611121611264565b73ffffffffffffffffffffffffffffffffffffffff1661113f610d1b565b73ffffffffffffffffffffffffffffffffffffffff161461119e57611162611264565b6040517f118cdaa700000000000000000000000000000000000000000000000000000000815260040161119591906116a5565b60405180910390fd5b565b60008060009054906101000a900473ffffffffffffffffffffffffffffffffffffffff169050816000806101000a81548173ffffffffffffffffffffffffffffffffffffffff021916908373ffffffffffffffffffffffffffffffffffffffff1602179055508173ffffffffffffffffffffffffffffffffffffffff168173ffffffffffffffffffffffffffffffffffffffff167f8be0079c531659141344cd1fd0a4f28419497f9722a3daafe3b4186f6b6457e060405160405180910390a35050565b600033905090565b508054600082559060005260206000209081019061128a919061128d565b50565b5b808211156112ad57600081816112a491906112b1565b5060010161128e565b5090565b5080546112bd906119a8565b6000825580601f106112cf57506112ee565b601f0160209004906000526020600020908101906112ed91906112f1565b5b50565b5b8082111561130a5760008160009055506001016112f2565b5090565b600080fd5b600080fd5b6000819050919050565b61132b81611318565b811461133657600080fd5b50565b60008135905061134881611322565b92915050565b6000602082840312156113645761136361130e565b5b600061137284828501611339565b91505092915050565b600081519050919050565b600082825260208201905092915050565b60005b838110156113b557808201518184015260208101905061139a565b60008484015250505050565b6000601f19601f8301169050919050565b60006113dd8261137b565b6113e78185611386565b93506113f7818560208601611397565b611400816113c1565b840191505092915050565b6000602082019050818103600083015261142581846113d2565b905092915050565b61143681611318565b82525050565b6000602082019050611451600083018461142d565b92915050565b600080fd5b600080fd5b600080fd5b60008083601f84011261147c5761147b611457565b5b8235905067ffffffffffffffff8111156114995761149861145c565b5b6020830191508360208202830111156114b5576114b4611461565b5b9250929050565b600080602083850312156114d3576114d261130e565b5b600083013567ffffffffffffffff8111156114f1576114f0611313565b5b6114fd85828601611466565b92509250509250929050565b60008083601f84011261151f5761151e611457565b5b8235905067ffffffffffffffff81111561153c5761153b61145c565b5b60208301915083600182028301111561155857611557611461565b5b9250929050565b600080602083850312156115765761157561130e565b5b600083013567ffffffffffffffff81111561159457611593611313565b5b6115a085828601611509565b92509250509250929050565b600073ffffffffffffffffffffffffffffffffffffffff82169050919050565b60006115d7826115ac565b9050919050565b6115e7816115cc565b81146115f257600080fd5b50565b600081359050611604816115de565b92915050565b6000602082840312156116205761161f61130e565b5b600061162e848285016115f5565b91505092915050565b60008115159050919050565b61164c81611637565b82525050565b60006020820190506116676000830184611643565b92915050565b6000604082019050611682600083018561142d565b61168f602083018461142d565b9392505050565b61169f816115cc565b82525050565b60006020820190506116ba6000830184611696565b92915050565b7f4e487b7100000000000000000000000000000000000000000000000000000000600052602160045260246000fd5b60038110611700576116ff6116c0565b5b50565b6000819050611711826116ef565b919050565b600061172182611703565b9050919050565b61173181611716565b82525050565b600060208201905061174c6000830184611728565b92915050565b7f496e76616c696420706861736500000000000000000000000000000000000000600082015250565b6000611788600d83611386565b915061179382611752565b602082019050919050565b600060208201905081810360008301526117b78161177b565b9050919050565b7f4e6f742072656769737465726564000000000000000000000000000000000000600082015250565b60006117f4600e83611386565b91506117ff826117be565b602082019050919050565b60006020820190508181036000830152611823816117e7565b9050919050565b7f416c726561647920766f74656400000000000000000000000000000000000000600082015250565b6000611860600d83611386565b915061186b8261182a565b602082019050919050565b6000602082019050818103600083015261188f81611853565b9050919050565b7f496e76616c69642070726f706f73616c00000000000000000000000000000000600082015250565b60006118cc601083611386565b91506118d782611896565b602082019050919050565b600060208201905081810360008301526118fb816118bf565b9050919050565b7f4e487b7100000000000000000000000000000000000000000000000000000000600052601160045260246000fd5b600061193c82611318565b91507fffffffffffffffffffffffffffffffffffffffffffffffffffffffffffffffff820361196e5761196d611902565b5b600182019050919050565b7f4e487b7100000000000000000000000000000000000000000000000000000000600052602260045260246000fd5b600060028204905060018216806119c057607f821691505b6020821081036119d3576119d2611979565b5b50919050565b7f416c726561647920726567697374657265640000000000000000000000000000600082015250565b6000611a0f601283611386565b9150611a1a826119d9565b602082019050919050565b60006020820190508181036000830152611a3e81611a02565b9050919050565b7f4e487b7100000000000000000000000000000000000000000000000000000000600052603260045260246000fd5b600080fd5b600080fd5b600080fd5b60008083356001602003843603038112611aa057611a9f611a74565b5b80840192508235915067ffffffffffffffff821115611ac257611ac1611a79565b5b602083019250600182023603831315611ade57611add611a7e565b5b509250929050565b600082905092915050565b7f4e487b7100000000000000000000000000000000000000000000000000000000600052604160045260246000fd5b60008190508160005260206000209050919050565b60006020601f8301049050919050565b600082821b905092915050565b600060088302611b827fffffffffffffffffffffffffffffffffffffffffffffffffffffffffffffffff82611b45565b611b8c8683611b45565b95508019841693508086168417925050509392505050565b6000819050919050565b6000611bc9611bc4611bbf84611318565b611ba4565b611318565b9050919050565b6000819050919050565b611be383611bae565b611bf7611bef82611bd0565b848454611b52565b825550505050565b600090565b611c0c611bff565b611c17818484611bda565b505050565b5b81811015611c3b57611c30600082611c04565b600181019050611c1d565b5050565b601f821115611c8057611c5181611b20565b611c5a84611b35565b81016020851015611c69578190505b611c7d611c7585611b35565b830182611c1c565b50505b505050565b600082821c905092915050565b6000611ca360001984600802611c85565b1980831691505092915050565b6000611cbc8383611c92565b9150826002028217905092915050565b611cd68383611ae6565b67ffffffffffffffff811115611cef57611cee611af1565b5b611cf982546119a8565b611d04828285611c3f565b6000601f831160018114611d335760008415611d21578287013590505b611d2b8582611cb0565b865550611d93565b601f198416611d4186611b20565b60005b82811015611d6957848901358255600182019150602085019450602081019050611d44565b86831015611d865784890135611d82601f891682611c92565b8355505b6001600288020188555050505b50505050505050565b82818337600083830152505050565b6000611db78385611386565b9350611dc4838584611d9c565b611dcd836113c1565b840190509392505050565b60006020820190508181036000830152611df3818486611dab565b90509392505050565b6000604082019050611e116000830185611728565b611e1e6020830184611728565b9392505050565b6000611e3082611318565b9150611e3b83611318565b9250828203905081811115611e5357611e52611902565b5b92915050565b7f4e6f2070726f706f73616c730000000000000000000000000000000000000000600082015250565b6000611e8f600c83611386565b9150611e9a82611e59565b602082019050919050565b60006020820190508181036000830152611ebe81611e82565b9050919050565b7f416c726561647920656e64656400000000000000000000000000000000000000600082015250565b6000611efb600d83611386565b9150611f0682611ec5565b602082019050919050565b60006020820190508181036000830152611f2a81611eee565b9050919050565b7f496e76616c696420696e64657800000000000000000000000000000000000000600082015250565b6000611f67600d83611386565b9150611f7282611f31565b602082019050919050565b60006020820190508181036000830152611f9681611f5a565b905091905056fea2646970667358221220ce0a59abbc253a36066aad598950fece2bd4ca0e6100a8bd9b8fdfeb5c805e1964736f6c63430008140033","opcodes":"PUSH1 0x80 PUSH1 0x40 MSTORE CALLVALUE DUP1 ISZERO PUSH3 0x11 JUMPI PUSH1 0x0 DUP1 REVERT JUMPDEST POP PUSH1 0x40 MLOAD PUSH3 0x2A2D CODESIZE SUB DUP1 PUSH3 0x2A2D DUP4 CODECOPY DUP2 DUP2 ADD PUSH1 0x40 MSTORE DUP2 ADD SWAP1 PUSH3 0x37 SWAP2 SWAP1 PUSH3 0x515 JUMP JUMPDEST CALLER PUSH1 0x0 PUSH20 0xFFFFFFFFFFFFFFFFFFFFFFFFFFFFFFFFFFFFFFFF AND DUP2 PUSH20 0xFFFFFFFFFFFFFFFFFFFFFFFFFFFFFFFFFFFFFFFF AND SUB PUSH3 0xAD JUMPI PUSH1 0x0 PUSH1 0x40 MLOAD PUSH32 0x1E4FBDF700000000000000000000000000000000000000000000000000000000 DUP2 MSTORE PUSH1 0x4 ADD PUSH3 0xA4 SWAP2 SWAP1 PUSH3 0x5AB JUMP JUMPDEST PUSH1 0x40 MLOAD DUP1 SWAP2 SUB SWAP1 REVERT JUMPDEST PUSH3 0xBE DUP2 PUSH3 0x1C2 PUSH1 0x20 SHL PUSH1 0x20 SHR JUMP JUMPDEST POP PUSH1 0x0 DUP1 PUSH1 0x14 PUSH2 0x100 EXP DUP2 SLOAD DUP2 PUSH1 0xFF MUL NOT AND SWAP1 DUP4 PUSH1 0x2 DUP2 GT ISZERO PUSH3 0xE7 JUMPI PUSH3 0xE6 PUSH3 0x5C8 JUMP JUMPDEST JUMPDEST MUL OR SWAP1 SSTORE POP PUSH1 0x0 JUMPDEST DUP2 MLOAD DUP2 LT ISZERO PUSH3 0x1BA JUMPI PUSH1 0x1 DUP3 DUP3 DUP2 MLOAD DUP2 LT PUSH3 0x111 JUMPI PUSH3 0x110 PUSH3 0x5F7 JUMP JUMPDEST JUMPDEST PUSH1 0x20 MUL PUSH1 0x20 ADD ADD MLOAD SWAP1 DUP1 PUSH1 0x1 DUP2 SLOAD ADD DUP1 DUP3 SSTORE DUP1 SWAP2 POP POP PUSH1 0x1 SWAP1 SUB SWAP1 PUSH1 0x0 MSTORE PUSH1 0x20 PUSH1 0x0 KECCAK256 ADD PUSH1 0x0 SWAP1 SWAP2 SWAP1 SWAP2 SWAP1 SWAP2 POP SWAP1 DUP2 PUSH3 0x14C SWAP2 SWAP1 PUSH3 0x871 JUMP JUMPDEST POP DUP1 PUSH32 0xF970AA486598017B8116C2BEB18C50D4584ECBC3C688817F59B26796725F31BF DUP4 DUP4 DUP2 MLOAD DUP2 LT PUSH3 0x185 JUMPI PUSH3 0x184 PUSH3 0x5F7 JUMP JUMPDEST JUMPDEST PUSH1 0x20 MUL PUSH1 0x20 ADD ADD MLOAD PUSH1 0x40 MLOAD PUSH3 0x19C SWAP2 SWAP1 PUSH3 0x9AA JUMP JUMPDEST PUSH1 0x40 MLOAD DUP1 SWAP2 SUB SWAP1 LOG2 DUP1 DUP1 PUSH3 0x1B1 SWAP1 PUSH3 0x9FD JUMP JUMPDEST SWAP2 POP POP PUSH3 0xEF JUMP JUMPDEST POP POP PUSH3 0xA4A JUMP JUMPDEST PUSH1 0x0 DUP1 PUSH1 0x0 SWAP1 SLOAD SWAP1 PUSH2 0x100 EXP SWAP1 DIV PUSH20 0xFFFFFFFFFFFFFFFFFFFFFFFFFFFFFFFFFFFFFFFF AND SWAP1 POP DUP2 PUSH1 0x0 DUP1 PUSH2 0x100 EXP DUP2 SLOAD DUP2 PUSH20 0xFFFFFFFFFFFFFFFFFFFFFFFFFFFFFFFFFFFFFFFF MUL NOT AND SWAP1 DUP4 PUSH20 0xFFFFFFFFFFFFFFFFFFFFFFFFFFFFFFFFFFFFFFFF AND MUL OR SWAP1 SSTORE POP DUP2 PUSH20 0xFFFFFFFFFFFFFFFFFFFFFFFFFFFFFFFFFFFFFFFF AND DUP2 PUSH20 0xFFFFFFFFFFFFFFFFFFFFFFFFFFFFFFFFFFFFFFFF AND PUSH32 0x8BE0079C531659141344CD1FD0A4F28419497F9722A3DAAFE3B4186F6B6457E0 PUSH1 0x40 MLOAD PUSH1 0x40 MLOAD DUP1 SWAP2 SUB SWAP1 LOG3 POP POP JUMP JUMPDEST PUSH1 0x0 PUSH1 0x40 MLOAD SWAP1 POP SWAP1 JUMP JUMPDEST PUSH1 0x0 DUP1 REVERT JUMPDEST PUSH1 0x0 DUP1 REVERT JUMPDEST PUSH1 0x0 DUP1 REVERT JUMPDEST PUSH1 0x0 PUSH1 0x1F NOT PUSH1 0x1F DUP4 ADD AND SWAP1 POP SWAP2 SWAP1 POP JUMP JUMPDEST PUSH32 0x4E487B7100000000000000000000000000000000000000000000000000000000 PUSH1 0x0 MSTORE PUSH1 0x41 PUSH1 0x4 MSTORE PUSH1 0x24 PUSH1 0x0 REVERT JUMPDEST PUSH3 0x2EA DUP3 PUSH3 0x29F JUMP JUMPDEST DUP2 ADD DUP2 DUP2 LT PUSH8 0xFFFFFFFFFFFFFFFF DUP3 GT OR ISZERO PUSH3 0x30C JUMPI PUSH3 0x30B PUSH3 0x2B0 JUMP JUMPDEST JUMPDEST DUP1 PUSH1 0x40 MSTORE POP POP POP JUMP JUMPDEST PUSH1 0x0 PUSH3 0x321 PUSH3 0x286 JUMP JUMPDEST SWAP1 POP PUSH3 0x32F DUP3 DUP3 PUSH3 0x2DF JUMP JUMPDEST SWAP2 SWAP1 POP JUMP JUMPDEST PUSH1 0x0 PUSH8 0xFFFFFFFFFFFFFFFF DUP3 GT ISZERO PUSH3 0x352 JUMPI PUSH3 0x351 PUSH3 0x2B0 JUMP JUMPDEST JUMPDEST PUSH1 0x20 DUP3 MUL SWAP1 POP PUSH1 0x20 DUP2 ADD SWAP1 POP SWAP2 SWAP1 POP JUMP JUMPDEST PUSH1 0x0 DUP1 REVERT JUMPDEST PUSH1 0x0 DUP1 REVERT JUMPDEST PUSH1 0x0 PUSH8 0xFFFFFFFFFFFFFFFF DUP3 GT ISZERO PUSH3 0x38B JUMPI PUSH3 0x38A PUSH3 0x2B0 JUMP JUMPDEST JUMPDEST PUSH3 0x396 DUP3 PUSH3 0x29F JUMP JUMPDEST SWAP1 POP PUSH1 0x20 DUP2 ADD SWAP1 POP SWAP2 SWAP1 POP JUMP JUMPDEST PUSH1 0x0 JUMPDEST DUP4 DUP2 LT ISZERO PUSH3 0x3C3 JUMPI DUP1 DUP3 ADD MLOAD DUP2 DUP5 ADD MSTORE PUSH1 0x20 DUP2 ADD SWAP1 POP PUSH3 0x3A6 JUMP JUMPDEST PUSH1 0x0 DUP5 DUP5 ADD MSTORE POP POP POP POP JUMP JUMPDEST PUSH1 0x0 PUSH3 0x3E6 PUSH3 0x3E0 DUP5 PUSH3 0x36D JUMP JUMPDEST PUSH3 0x315 JUMP JUMPDEST SWAP1 POP DUP3 DUP2 MSTORE PUSH1 0x20 DUP2 ADD DUP5 DUP5 DUP5 ADD GT ISZERO PUSH3 0x405 JUMPI PUSH3 0x404 PUSH3 0x368 JUMP JUMPDEST JUMPDEST PUSH3 0x412 DUP5 DUP3 DUP6 PUSH3 0x3A3 JUMP JUMPDEST POP SWAP4 SWAP3 POP POP POP JUMP JUMPDEST PUSH1 0x0 DUP3 PUSH1 0x1F DUP4 ADD SLT PUSH3 0x432 JUMPI PUSH3 0x431 PUSH3 0x29A JUMP JUMPDEST JUMPDEST DUP2 MLOAD PUSH3 0x444 DUP5 DUP3 PUSH1 0x20 DUP7 ADD PUSH3 0x3CF JUMP JUMPDEST SWAP2 POP POP SWAP3 SWAP2 POP POP JUMP JUMPDEST PUSH1 0x0 PUSH3 0x464 PUSH3 0x45E DUP5 PUSH3 0x334 JUMP JUMPDEST PUSH3 0x315 JUMP JUMPDEST SWAP1 POP DUP1 DUP4 DUP3 MSTORE PUSH1 0x20 DUP3 ADD SWAP1 POP PUSH1 0x20 DUP5 MUL DUP4 ADD DUP6 DUP2 GT ISZERO PUSH3 0x48A JUMPI PUSH3 0x489 PUSH3 0x363 JUMP JUMPDEST JUMPDEST DUP4 JUMPDEST DUP2 DUP2 LT ISZERO PUSH3 0x4D8 JUMPI DUP1 MLOAD PUSH8 0xFFFFFFFFFFFFFFFF DUP2 GT ISZERO PUSH3 0x4B3 JUMPI PUSH3 0x4B2 PUSH3 0x29A JUMP JUMPDEST JUMPDEST DUP1 DUP7 ADD PUSH3 0x4C2 DUP10 DUP3 PUSH3 0x41A JUMP JUMPDEST DUP6 MSTORE PUSH1 0x20 DUP6 ADD SWAP5 POP POP POP PUSH1 0x20 DUP2 ADD SWAP1 POP PUSH3 0x48C JUMP JUMPDEST POP POP POP SWAP4 SWAP3 POP POP POP JUMP JUMPDEST PUSH1 0x0 DUP3 PUSH1 0x1F DUP4 ADD SLT PUSH3 0x4FA JUMPI PUSH3 0x4F9 PUSH3 0x29A JUMP JUMPDEST JUMPDEST DUP2 MLOAD PUSH3 0x50C DUP5 DUP3 PUSH1 0x20 DUP7 ADD PUSH3 0x44D JUMP JUMPDEST SWAP2 POP POP SWAP3 SWAP2 POP POP JUMP JUMPDEST PUSH1 0x0 PUSH1 0x20 DUP3 DUP5 SUB SLT ISZERO PUSH3 0x52E JUMPI PUSH3 0x52D PUSH3 0x290 JUMP JUMPDEST JUMPDEST PUSH1 0x0 DUP3 ADD MLOAD PUSH8 0xFFFFFFFFFFFFFFFF DUP2 GT ISZERO PUSH3 0x54F JUMPI PUSH3 0x54E PUSH3 0x295 JUMP JUMPDEST JUMPDEST PUSH3 0x55D DUP5 DUP3 DUP6 ADD PUSH3 0x4E2 JUMP JUMPDEST SWAP2 POP POP SWAP3 SWAP2 POP POP JUMP JUMPDEST PUSH1 0x0 PUSH20 0xFFFFFFFFFFFFFFFFFFFFFFFFFFFFFFFFFFFFFFFF DUP3 AND SWAP1 POP SWAP2 SWAP1 POP JUMP JUMPDEST PUSH1 0x0 PUSH3 0x593 DUP3 PUSH3 0x566 JUMP JUMPDEST SWAP1 POP SWAP2 SWAP1 POP JUMP JUMPDEST PUSH3 0x5A5 DUP2 PUSH3 0x586 JUMP JUMPDEST DUP3 MSTORE POP POP JUMP JUMPDEST PUSH1 0x0 PUSH1 0x20 DUP3 ADD SWAP1 POP PUSH3 0x5C2 PUSH1 0x0 DUP4 ADD DUP5 PUSH3 0x59A JUMP JUMPDEST SWAP3 SWAP2 POP POP JUMP JUMPDEST PUSH32 0x4E487B7100000000000000000000000000000000000000000000000000000000 PUSH1 0x0 MSTORE PUSH1 0x21 PUSH1 0x4 MSTORE PUSH1 0x24 PUSH1 0x0 REVERT JUMPDEST PUSH32 0x4E487B7100000000000000000000000000000000000000000000000000000000 PUSH1 0x0 MSTORE PUSH1 0x32 PUSH1 0x4 MSTORE PUSH1 0x24 PUSH1 0x0 REVERT JUMPDEST PUSH1 0x0 DUP2 MLOAD SWAP1 POP SWAP2 SWAP1 POP JUMP JUMPDEST PUSH32 0x4E487B7100000000000000000000000000000000000000000000000000000000 PUSH1 0x0 MSTORE PUSH1 0x22 PUSH1 0x4 MSTORE PUSH1 0x24 PUSH1 0x0 REVERT JUMPDEST PUSH1 0x0 PUSH1 0x2 DUP3 DIV SWAP1 POP PUSH1 0x1 DUP3 AND DUP1 PUSH3 0x679 JUMPI PUSH1 0x7F DUP3 AND SWAP2 POP JUMPDEST PUSH1 0x20 DUP3 LT DUP2 SUB PUSH3 0x68F JUMPI PUSH3 0x68E PUSH3 0x631 JUMP JUMPDEST JUMPDEST POP SWAP2 SWAP1 POP JUMP JUMPDEST PUSH1 0x0 DUP2 SWAP1 POP DUP2 PUSH1 0x0 MSTORE PUSH1 0x20 PUSH1 0x0 KECCAK256 SWAP1 POP SWAP2 SWAP1 POP JUMP JUMPDEST PUSH1 0x0 PUSH1 0x20 PUSH1 0x1F DUP4 ADD DIV SWAP1 POP SWAP2 SWAP1 POP JUMP JUMPDEST PUSH1 0x0 DUP3 DUP3 SHL SWAP1 POP SWAP3 SWAP2 POP POP JUMP JUMPDEST PUSH1 0x0 PUSH1 0x8 DUP4 MUL PUSH3 0x6F9 PUSH32 0xFFFFFFFFFFFFFFFFFFFFFFFFFFFFFFFFFFFFFFFFFFFFFFFFFFFFFFFFFFFFFFFF DUP3 PUSH3 0x6BA JUMP JUMPDEST PUSH3 0x705 DUP7 DUP4 PUSH3 0x6BA JUMP JUMPDEST SWAP6 POP DUP1 NOT DUP5 AND SWAP4 POP DUP1 DUP7 AND DUP5 OR SWAP3 POP POP POP SWAP4 SWAP3 POP POP POP JUMP JUMPDEST PUSH1 0x0 DUP2 SWAP1 POP SWAP2 SWAP1 POP JUMP JUMPDEST PUSH1 0x0 DUP2 SWAP1 POP SWAP2 SWAP1 POP JUMP JUMPDEST PUSH1 0x0 PUSH3 0x752 PUSH3 0x74C PUSH3 0x746 DUP5 PUSH3 0x71D JUMP JUMPDEST PUSH3 0x727 JUMP JUMPDEST PUSH3 0x71D JUMP JUMPDEST SWAP1 POP SWAP2 SWAP1 POP JUMP JUMPDEST PUSH1 0x0 DUP2 SWAP1 POP SWAP2 SWAP1 POP JUMP JUMPDEST PUSH3 0x76E DUP4 PUSH3 0x731 JUMP JUMPDEST PUSH3 0x786 PUSH3 0x77D DUP3 PUSH3 0x759 JUMP JUMPDEST DUP5 DUP5 SLOAD PUSH3 0x6C7 JUMP JUMPDEST DUP3 SSTORE POP POP POP POP JUMP JUMPDEST PUSH1 0x0 SWAP1 JUMP JUMPDEST PUSH3 0x79D PUSH3 0x78E JUMP JUMPDEST PUSH3 0x7AA DUP2 DUP5 DUP5 PUSH3 0x763 JUMP JUMPDEST POP POP POP JUMP JUMPDEST JUMPDEST DUP2 DUP2 LT ISZERO PUSH3 0x7D2 JUMPI PUSH3 0x7C6 PUSH1 0x0 DUP3 PUSH3 0x793 JUMP JUMPDEST PUSH1 0x1 DUP2 ADD SWAP1 POP PUSH3 0x7B0 JUMP JUMPDEST POP POP JUMP JUMPDEST PUSH1 0x1F DUP3 GT ISZERO PUSH3 0x821 JUMPI PUSH3 0x7EB DUP2 PUSH3 0x695 JUMP JUMPDEST PUSH3 0x7F6 DUP5 PUSH3 0x6AA JUMP JUMPDEST DUP2 ADD PUSH1 0x20 DUP6 LT ISZERO PUSH3 0x806 JUMPI DUP2 SWAP1 POP JUMPDEST PUSH3 0x81E PUSH3 0x815 DUP6 PUSH3 0x6AA JUMP JUMPDEST DUP4 ADD DUP3 PUSH3 0x7AF JUMP JUMPDEST POP POP JUMPDEST POP POP POP JUMP JUMPDEST PUSH1 0x0 DUP3 DUP3 SHR SWAP1 POP SWAP3 SWAP2 POP POP JUMP JUMPDEST PUSH1 0x0 PUSH3 0x846 PUSH1 0x0 NOT DUP5 PUSH1 0x8 MUL PUSH3 0x826 JUMP JUMPDEST NOT DUP1 DUP4 AND SWAP2 POP POP SWAP3 SWAP2 POP POP JUMP JUMPDEST PUSH1 0x0 PUSH3 0x861 DUP4 DUP4 PUSH3 0x833 JUMP JUMPDEST SWAP2 POP DUP3 PUSH1 0x2 MUL DUP3 OR SWAP1 POP SWAP3 SWAP2 POP POP JUMP JUMPDEST PUSH3 0x87C DUP3 PUSH3 0x626 JUMP JUMPDEST PUSH8 0xFFFFFFFFFFFFFFFF DUP2 GT ISZERO PUSH3 0x898 JUMPI PUSH3 0x897 PUSH3 0x2B0 JUMP JUMPDEST JUMPDEST PUSH3 0x8A4 DUP3 SLOAD PUSH3 0x660 JUMP JUMPDEST PUSH3 0x8B1 DUP3 DUP3 DUP6 PUSH3 0x7D6 JUMP JUMPDEST PUSH1 0x0 PUSH1 0x20 SWAP1 POP PUSH1 0x1F DUP4 GT PUSH1 0x1 DUP2 EQ PUSH3 0x8E9 JUMPI PUSH1 0x0 DUP5 ISZERO PUSH3 0x8D4 JUMPI DUP3 DUP8 ADD MLOAD SWAP1 POP JUMPDEST PUSH3 0x8E0 DUP6 DUP3 PUSH3 0x853 JUMP JUMPDEST DUP7 SSTORE POP PUSH3 0x950 JUMP JUMPDEST PUSH1 0x1F NOT DUP5 AND PUSH3 0x8F9 DUP7 PUSH3 0x695 JUMP JUMPDEST PUSH1 0x0 JUMPDEST DUP3 DUP2 LT ISZERO PUSH3 0x923 JUMPI DUP5 DUP10 ADD MLOAD DUP3 SSTORE PUSH1 0x1 DUP3 ADD SWAP2 POP PUSH1 0x20 DUP6 ADD SWAP5 POP PUSH1 0x20 DUP2 ADD SWAP1 POP PUSH3 0x8FC JUMP JUMPDEST DUP7 DUP4 LT ISZERO PUSH3 0x943 JUMPI DUP5 DUP10 ADD MLOAD PUSH3 0x93F PUSH1 0x1F DUP10 AND DUP3 PUSH3 0x833 JUMP JUMPDEST DUP4 SSTORE POP JUMPDEST PUSH1 0x1 PUSH1 0x2 DUP9 MUL ADD DUP9 SSTORE POP POP POP JUMPDEST POP POP POP POP POP POP JUMP JUMPDEST PUSH1 0x0 DUP3 DUP3 MSTORE PUSH1 0x20 DUP3 ADD SWAP1 POP SWAP3 SWAP2 POP POP JUMP JUMPDEST PUSH1 0x0 PUSH3 0x976 DUP3 PUSH3 0x626 JUMP JUMPDEST PUSH3 0x982 DUP2 DUP6 PUSH3 0x958 JUMP JUMPDEST SWAP4 POP PUSH3 0x994 DUP2 DUP6 PUSH1 0x20 DUP7 ADD PUSH3 0x3A3 JUMP JUMPDEST PUSH3 0x99F DUP2 PUSH3 0x29F JUMP JUMPDEST DUP5 ADD SWAP2 POP POP SWAP3 SWAP2 POP POP JUMP JUMPDEST PUSH1 0x0 PUSH1 0x20 DUP3 ADD SWAP1 POP DUP2 DUP2 SUB PUSH1 0x0 DUP4 ADD MSTORE PUSH3 0x9C6 DUP2 DUP5 PUSH3 0x969 JUMP JUMPDEST SWAP1 POP SWAP3 SWAP2 POP POP JUMP JUMPDEST PUSH32 0x4E487B7100000000000000000000000000000000000000000000000000000000 PUSH1 0x0 MSTORE PUSH1 0x11 PUSH1 0x4 MSTORE PUSH1 0x24 PUSH1 0x0 REVERT JUMPDEST PUSH1 0x0 PUSH3 0xA0A DUP3 PUSH3 0x71D JUMP JUMPDEST SWAP2 POP PUSH32 0xFFFFFFFFFFFFFFFFFFFFFFFFFFFFFFFFFFFFFFFFFFFFFFFFFFFFFFFFFFFFFFFF DUP3 SUB PUSH3 0xA3F JUMPI PUSH3 0xA3E PUSH3 0x9CE JUMP JUMPDEST JUMPDEST PUSH1 0x1 DUP3 ADD SWAP1 POP SWAP2 SWAP1 POP JUMP JUMPDEST PUSH2 0x1FD3 DUP1 PUSH3 0xA5A PUSH1 0x0 CODECOPY PUSH1 0x0 RETURN INVALID PUSH1 0x80 PUSH1 0x40 MSTORE CALLVALUE DUP1 ISZERO PUSH2 0x10 JUMPI PUSH1 0x0 DUP1 REVERT JUMPDEST POP PUSH1 0x4 CALLDATASIZE LT PUSH2 0x116 JUMPI PUSH1 0x0 CALLDATALOAD PUSH1 0xE0 SHR DUP1 PUSH4 0x8DA5CB5B GT PUSH2 0xA2 JUMPI DUP1 PUSH4 0xBE25A718 GT PUSH2 0x71 JUMPI DUP1 PUSH4 0xBE25A718 EQ PUSH2 0x298 JUMPI DUP1 PUSH4 0xC3C5A547 EQ PUSH2 0x2A2 JUMPI DUP1 PUSH4 0xC7F758A8 EQ PUSH2 0x2D2 JUMPI DUP1 PUSH4 0xD40B65EB EQ PUSH2 0x302 JUMPI DUP1 PUSH4 0xF2FDE38B EQ PUSH2 0x332 JUMPI PUSH2 0x116 JUMP JUMPDEST DUP1 PUSH4 0x8DA5CB5B EQ PUSH2 0x220 JUMPI DUP1 PUSH4 0x927416C0 EQ PUSH2 0x23E JUMPI DUP1 PUSH4 0x98E527D3 EQ PUSH2 0x25C JUMPI DUP1 PUSH4 0xB1C9FE6E EQ PUSH2 0x27A JUMPI PUSH2 0x116 JUMP JUMPDEST DUP1 PUSH4 0x29FE4047 GT PUSH2 0xE9 JUMPI DUP1 PUSH4 0x29FE4047 EQ PUSH2 0x18F JUMPI DUP1 PUSH4 0x2FDAE3C5 EQ PUSH2 0x1AB JUMPI DUP1 PUSH4 0x354D91DE EQ PUSH2 0x1C7 JUMPI DUP1 PUSH4 0x609FF1BD EQ PUSH2 0x1F7 JUMPI DUP1 PUSH4 0x715018A6 EQ PUSH2 0x216 JUMPI PUSH2 0x116 JUMP JUMPDEST DUP1 PUSH4 0x121B93F EQ PUSH2 0x11B JUMPI DUP1 PUSH4 0x13CF08B EQ PUSH2 0x137 JUMPI DUP1 PUSH4 0xD15FD77 EQ PUSH2 0x167 JUMPI DUP1 PUSH4 0x1AA3A008 EQ PUSH2 0x185 JUMPI JUMPDEST PUSH1 0x0 DUP1 REVERT JUMPDEST PUSH2 0x135 PUSH1 0x4 DUP1 CALLDATASIZE SUB DUP2 ADD SWAP1 PUSH2 0x130 SWAP2 SWAP1 PUSH2 0x134E JUMP JUMPDEST PUSH2 0x34E JUMP JUMPDEST STOP JUMPDEST PUSH2 0x151 PUSH1 0x4 DUP1 CALLDATASIZE SUB DUP2 ADD SWAP1 PUSH2 0x14C SWAP2 SWAP1 PUSH2 0x134E JUMP JUMPDEST PUSH2 0x606 JUMP JUMPDEST PUSH1 0x40 MLOAD PUSH2 0x15E SWAP2 SWAP1 PUSH2 0x140B JUMP JUMPDEST PUSH1 0x40 MLOAD DUP1 SWAP2 SUB SWAP1 RETURN JUMPDEST PUSH2 0x16F PUSH2 0x6B2 JUMP JUMPDEST PUSH1 0x40 MLOAD PUSH2 0x17C SWAP2 SWAP1 PUSH2 0x143C JUMP JUMPDEST PUSH1 0x40 MLOAD DUP1 SWAP2 SUB SWAP1 RETURN JUMPDEST PUSH2 0x18D PUSH2 0x6B8 JUMP JUMPDEST STOP JUMPDEST PUSH2 0x1A9 PUSH1 0x4 DUP1 CALLDATASIZE SUB DUP2 ADD SWAP1 PUSH2 0x1A4 SWAP2 SWAP1 PUSH2 0x14BC JUMP JUMPDEST PUSH2 0x872 JUMP JUMPDEST STOP JUMPDEST PUSH2 0x1C5 PUSH1 0x4 DUP1 CALLDATASIZE SUB DUP2 ADD SWAP1 PUSH2 0x1C0 SWAP2 SWAP1 PUSH2 0x155F JUMP JUMPDEST PUSH2 0xA7A JUMP JUMPDEST STOP JUMPDEST PUSH2 0x1E1 PUSH1 0x4 DUP1 CALLDATASIZE SUB DUP2 ADD SWAP1 PUSH2 0x1DC SWAP2 SWAP1 PUSH2 0x160A JUMP JUMPDEST PUSH2 0xB86 JUMP JUMPDEST PUSH1 0x40 MLOAD PUSH2 0x1EE SWAP2 SWAP1 PUSH2 0x1652 JUMP JUMPDEST PUSH1 0x40 MLOAD DUP1 SWAP2 SUB SWAP1 RETURN JUMPDEST PUSH2 0x1FF PUSH2 0xBDC JUMP JUMPDEST PUSH1 0x40 MLOAD PUSH2 0x20D SWAP3 SWAP2 SWAP1 PUSH2 0x166D JUMP JUMPDEST PUSH1 0x40 MLOAD DUP1 SWAP2 SUB SWAP1 RETURN JUMPDEST PUSH2 0x21E PUSH2 0xD07 JUMP JUMPDEST STOP JUMPDEST PUSH2 0x228 PUSH2 0xD1B JUMP JUMPDEST PUSH1 0x40 MLOAD PUSH2 0x235 SWAP2 SWAP1 PUSH2 0x16A5 JUMP JUMPDEST PUSH1 0x40 MLOAD DUP1 SWAP2 SUB SWAP1 RETURN JUMPDEST PUSH2 0x246 PUSH2 0xD44 JUMP JUMPDEST PUSH1 0x40 MLOAD PUSH2 0x253 SWAP2 SWAP1 PUSH2 0x143C JUMP JUMPDEST PUSH1 0x40 MLOAD DUP1 SWAP2 SUB SWAP1 RETURN JUMPDEST PUSH2 0x264 PUSH2 0xD4A JUMP JUMPDEST PUSH1 0x40 MLOAD PUSH2 0x271 SWAP2 SWAP1 PUSH2 0x143C JUMP JUMPDEST PUSH1 0x40 MLOAD DUP1 SWAP2 SUB SWAP1 RETURN JUMPDEST PUSH2 0x282 PUSH2 0xD57 JUMP JUMPDEST PUSH1 0x40 MLOAD PUSH2 0x28F SWAP2 SWAP1 PUSH2 0x1737 JUMP JUMPDEST PUSH1 0x40 MLOAD DUP1 SWAP2 SUB SWAP1 RETURN JUMPDEST PUSH2 0x2A0 PUSH2 0xD6A JUMP JUMPDEST STOP JUMPDEST PUSH2 0x2BC PUSH1 0x4 DUP1 CALLDATASIZE SUB DUP2 ADD SWAP1 PUSH2 0x2B7 SWAP2 SWAP1 PUSH2 0x160A JUMP JUMPDEST PUSH2 0xEE2 JUMP JUMPDEST PUSH1 0x40 MLOAD PUSH2 0x2C9 SWAP2 SWAP1 PUSH2 0x1652 JUMP JUMPDEST PUSH1 0x40 MLOAD DUP1 SWAP2 SUB SWAP1 RETURN JUMPDEST PUSH2 0x2EC PUSH1 0x4 DUP1 CALLDATASIZE SUB DUP2 ADD SWAP1 PUSH2 0x2E7 SWAP2 SWAP1 PUSH2 0x134E JUMP JUMPDEST PUSH2 0xF38 JUMP JUMPDEST PUSH1 0x40 MLOAD PUSH2 0x2F9 SWAP2 SWAP1 PUSH2 0x140B JUMP JUMPDEST PUSH1 0x40 MLOAD DUP1 SWAP2 SUB SWAP1 RETURN JUMPDEST PUSH2 0x31C PUSH1 0x4 DUP1 CALLDATASIZE SUB DUP2 ADD SWAP1 PUSH2 0x317 SWAP2 SWAP1 PUSH2 0x134E JUMP JUMPDEST PUSH2 0x102F JUMP JUMPDEST PUSH1 0x40 MLOAD PUSH2 0x329 SWAP2 SWAP1 PUSH2 0x143C JUMP JUMPDEST PUSH1 0x40 MLOAD DUP1 SWAP2 SUB SWAP1 RETURN JUMPDEST PUSH2 0x34C PUSH1 0x4 DUP1 CALLDATASIZE SUB DUP2 ADD SWAP1 PUSH2 0x347 SWAP2 SWAP1 PUSH2 0x160A JUMP JUMPDEST PUSH2 0x1093 JUMP JUMPDEST STOP JUMPDEST PUSH1 0x1 DUP1 PUSH1 0x2 DUP2 GT ISZERO PUSH2 0x363 JUMPI PUSH2 0x362 PUSH2 0x16C0 JUMP JUMPDEST JUMPDEST PUSH1 0x0 PUSH1 0x14 SWAP1 SLOAD SWAP1 PUSH2 0x100 EXP SWAP1 DIV PUSH1 0xFF AND PUSH1 0x2 DUP2 GT ISZERO PUSH2 0x385 JUMPI PUSH2 0x384 PUSH2 0x16C0 JUMP JUMPDEST JUMPDEST EQ PUSH2 0x3C5 JUMPI PUSH1 0x40 MLOAD PUSH32 0x8C379A000000000000000000000000000000000000000000000000000000000 DUP2 MSTORE PUSH1 0x4 ADD PUSH2 0x3BC SWAP1 PUSH2 0x179E JUMP JUMPDEST PUSH1 0x40 MLOAD DUP1 SWAP2 SUB SWAP1 REVERT JUMPDEST PUSH1 0x2 PUSH1 0x0 CALLER PUSH20 0xFFFFFFFFFFFFFFFFFFFFFFFFFFFFFFFFFFFFFFFF AND PUSH20 0xFFFFFFFFFFFFFFFFFFFFFFFFFFFFFFFFFFFFFFFF AND DUP2 MSTORE PUSH1 0x20 ADD SWAP1 DUP2 MSTORE PUSH1 0x20 ADD PUSH1 0x0 KECCAK256 PUSH1 0x0 SWAP1 SLOAD SWAP1 PUSH2 0x100 EXP SWAP1 DIV PUSH1 0xFF AND PUSH2 0x451 JUMPI PUSH1 0x40 MLOAD PUSH32 0x8C379A000000000000000000000000000000000000000000000000000000000 DUP2 MSTORE PUSH1 0x4 ADD PUSH2 0x448 SWAP1 PUSH2 0x180A JUMP JUMPDEST PUSH1 0x40 MLOAD DUP1 SWAP2 SUB SWAP1 REVERT JUMPDEST PUSH1 0x3 PUSH1 0x0 CALLER PUSH20 0xFFFFFFFFFFFFFFFFFFFFFFFFFFFFFFFFFFFFFFFF AND PUSH20 0xFFFFFFFFFFFFFFFFFFFFFFFFFFFFFFFFFFFFFFFF AND DUP2 MSTORE PUSH1 0x20 ADD SWAP1 DUP2 MSTORE PUSH1 0x20 ADD PUSH1 0x0 KECCAK256 PUSH1 0x0 SWAP1 SLOAD SWAP1 PUSH2 0x100 EXP SWAP1 DIV PUSH1 0xFF AND ISZERO PUSH2 0x4DE JUMPI PUSH1 0x40 MLOAD PUSH32 0x8C379A000000000000000000000000000000000000000000000000000000000 DUP2 MSTORE PUSH1 0x4 ADD PUSH2 0x4D5 SWAP1 PUSH2 0x1876 JUMP JUMPDEST PUSH1 0x40 MLOAD DUP1 SWAP2 SUB SWAP1 REVERT JUMPDEST PUSH1 0x1 DUP1 SLOAD SWAP1 POP DUP3 LT PUSH2 0x525 JUMPI PUSH1 0x40 MLOAD PUSH32 0x8C379A000000000000000000000000000000000000000000000000000000000 DUP2 MSTORE PUSH1 0x4 ADD PUSH2 0x51C SWAP1 PUSH2 0x18E2 JUMP JUMPDEST PUSH1 0x40 MLOAD DUP1 SWAP2 SUB SWAP1 REVERT JUMPDEST PUSH1 0x1 PUSH1 0x3 PUSH1 0x0 CALLER PUSH20 0xFFFFFFFFFFFFFFFFFFFFFFFFFFFFFFFFFFFFFFFF AND PUSH20 0xFFFFFFFFFFFFFFFFFFFFFFFFFFFFFFFFFFFFFFFF AND DUP2 MSTORE PUSH1 0x20 ADD SWAP1 DUP2 MSTORE PUSH1 0x20 ADD PUSH1 0x0 KECCAK256 PUSH1 0x0 PUSH2 0x100 EXP DUP2 SLOAD DUP2 PUSH1 0xFF MUL NOT AND SWAP1 DUP4 ISZERO ISZERO MUL OR SWAP1 SSTORE POP PUSH1 0x4 PUSH1 0x0 DUP4 DUP2 MSTORE PUSH1 0x20 ADD SWAP1 DUP2 MSTORE PUSH1 0x20 ADD PUSH1 0x0 KECCAK256 PUSH1 0x0 DUP2 SLOAD DUP1 SWAP3 SWAP2 SWAP1 PUSH2 0x5A1 SWAP1 PUSH2 0x1931 JUMP JUMPDEST SWAP2 SWAP1 POP SSTORE POP PUSH1 0x6 PUSH1 0x0 DUP2 SLOAD DUP1 SWAP3 SWAP2 SWAP1 PUSH2 0x5B9 SWAP1 PUSH2 0x1931 JUMP JUMPDEST SWAP2 SWAP1 POP SSTORE POP DUP2 CALLER PUSH20 0xFFFFFFFFFFFFFFFFFFFFFFFFFFFFFFFFFFFFFFFF AND PUSH32 0xA36CC2BEBB74DB33E9F88110A07EF56E1B31B24B4C4F51B54B1664266E29F45B PUSH1 0x40 MLOAD PUSH1 0x40 MLOAD DUP1 SWAP2 SUB SWAP1 LOG3 POP POP JUMP JUMPDEST PUSH1 0x1 DUP2 DUP2 SLOAD DUP2 LT PUSH2 0x616 JUMPI PUSH1 0x0 DUP1 REVERT JUMPDEST SWAP1 PUSH1 0x0 MSTORE PUSH1 0x20 PUSH1 0x0 KECCAK256 ADD PUSH1 0x0 SWAP2 POP SWAP1 POP DUP1 SLOAD PUSH2 0x631 SWAP1 PUSH2 0x19A8 JUMP JUMPDEST DUP1 PUSH1 0x1F ADD PUSH1 0x20 DUP1 SWAP2 DIV MUL PUSH1 0x20 ADD PUSH1 0x40 MLOAD SWAP1 DUP2 ADD PUSH1 0x40 MSTORE DUP1 SWAP3 SWAP2 SWAP1 DUP2 DUP2 MSTORE PUSH1 0x20 ADD DUP3 DUP1 SLOAD PUSH2 0x65D SWAP1 PUSH2 0x19A8 JUMP JUMPDEST DUP1 ISZERO PUSH2 0x6AA JUMPI DUP1 PUSH1 0x1F LT PUSH2 0x67F JUMPI PUSH2 0x100 DUP1 DUP4 SLOAD DIV MUL DUP4 MSTORE SWAP2 PUSH1 0x20 ADD SWAP2 PUSH2 0x6AA JUMP JUMPDEST DUP3 ADD SWAP2 SWAP1 PUSH1 0x0 MSTORE PUSH1 0x20 PUSH1 0x0 KECCAK256 SWAP1 JUMPDEST DUP2 SLOAD DUP2 MSTORE SWAP1 PUSH1 0x1 ADD SWAP1 PUSH1 0x20 ADD DUP1 DUP4 GT PUSH2 0x68D JUMPI DUP3 SWAP1 SUB PUSH1 0x1F AND DUP3 ADD SWAP2 JUMPDEST POP POP POP POP POP DUP2 JUMP JUMPDEST PUSH1 0x6 SLOAD DUP2 JUMP JUMPDEST PUSH1 0x0 DUP1 PUSH1 0x2 DUP2 GT ISZERO PUSH2 0x6CD JUMPI PUSH2 0x6CC PUSH2 0x16C0 JUMP JUMPDEST JUMPDEST PUSH1 0x0 PUSH1 0x14 SWAP1 SLOAD SWAP1 PUSH2 0x100 EXP SWAP1 DIV PUSH1 0xFF AND PUSH1 0x2 DUP2 GT ISZERO PUSH2 0x6EF JUMPI PUSH2 0x6EE PUSH2 0x16C0 JUMP JUMPDEST JUMPDEST EQ PUSH2 0x72F JUMPI PUSH1 0x40 MLOAD PUSH32 0x8C379A000000000000000000000000000000000000000000000000000000000 DUP2 MSTORE PUSH1 0x4 ADD PUSH2 0x726 SWAP1 PUSH2 0x179E JUMP JUMPDEST PUSH1 0x40 MLOAD DUP1 SWAP2 SUB SWAP1 REVERT JUMPDEST PUSH1 0x2 PUSH1 0x0 CALLER PUSH20 0xFFFFFFFFFFFFFFFFFFFFFFFFFFFFFFFFFFFFFFFF AND PUSH20 0xFFFFFFFFFFFFFFFFFFFFFFFFFFFFFFFFFFFFFFFF AND DUP2 MSTORE PUSH1 0x20 ADD SWAP1 DUP2 MSTORE PUSH1 0x20 ADD PUSH1 0x0 KECCAK256 PUSH1 0x0 SWAP1 SLOAD SWAP1 PUSH2 0x100 EXP SWAP1 DIV PUSH1 0xFF AND ISZERO PUSH2 0x7BC JUMPI PUSH1 0x40 MLOAD PUSH32 0x8C379A000000000000000000000000000000000000000000000000000000000 DUP2 MSTORE PUSH1 0x4 ADD PUSH2 0x7B3 SWAP1 PUSH2 0x1A25 JUMP JUMPDEST PUSH1 0x40 MLOAD DUP1 SWAP2 SUB SWAP1 REVERT JUMPDEST PUSH1 0x1 PUSH1 0x2 PUSH1 0x0 CALLER PUSH20 0xFFFFFFFFFFFFFFFFFFFFFFFFFFFFFFFFFFFFFFFF AND PUSH20 0xFFFFFFFFFFFFFFFFFFFFFFFFFFFFFFFFFFFFFFFF AND DUP2 MSTORE PUSH1 0x20 ADD SWAP1 DUP2 MSTORE PUSH1 0x20 ADD PUSH1 0x0 KECCAK256 PUSH1 0x0 PUSH2 0x100 EXP DUP2 SLOAD DUP2 PUSH1 0xFF MUL NOT AND SWAP1 DUP4 ISZERO ISZERO MUL OR SWAP1 SSTORE POP PUSH1 0x5 PUSH1 0x0 DUP2 SLOAD DUP1 SWAP3 SWAP2 SWAP1 PUSH2 0x827 SWAP1 PUSH2 0x1931 JUMP JUMPDEST SWAP2 SWAP1 POP SSTORE POP CALLER PUSH20 0xFFFFFFFFFFFFFFFFFFFFFFFFFFFFFFFFFFFFFFFF AND PUSH32 0xB6BE2187D059CC2A55FE29E0E503B566E1E0F8C8780096E185429350ACFFD3DD PUSH1 0x40 MLOAD PUSH1 0x40 MLOAD DUP1 SWAP2 SUB SWAP1 LOG2 POP JUMP JUMPDEST PUSH2 0x87A PUSH2 0x1119 JUMP JUMPDEST PUSH1 0x2 DUP1 PUSH1 0x2 DUP2 GT ISZERO PUSH2 0x88F JUMPI PUSH2 0x88E PUSH2 0x16C0 JUMP JUMPDEST JUMPDEST PUSH1 0x0 PUSH1 0x14 SWAP1 SLOAD SWAP1 PUSH2 0x100 EXP SWAP1 DIV PUSH1 0xFF AND PUSH1 0x2 DUP2 GT ISZERO PUSH2 0x8B1 JUMPI PUSH2 0x8B0 PUSH2 0x16C0 JUMP JUMPDEST JUMPDEST EQ PUSH2 0x8F1 JUMPI PUSH1 0x40 MLOAD PUSH32 0x8C379A000000000000000000000000000000000000000000000000000000000 DUP2 MSTORE PUSH1 0x4 ADD PUSH2 0x8E8 SWAP1 PUSH2 0x179E JUMP JUMPDEST PUSH1 0x40 MLOAD DUP1 SWAP2 SUB SWAP1 REVERT JUMPDEST PUSH1 0x1 PUSH1 0x0 PUSH2 0x8FF SWAP2 SWAP1 PUSH2 0x126C JUMP JUMPDEST PUSH1 0x0 PUSH1 0x5 DUP2 SWAP1 SSTORE POP PUSH1 0x0 PUSH1 0x6 DUP2 SWAP1 SSTORE POP PUSH1 0x0 JUMPDEST DUP4 DUP4 SWAP1 POP DUP2 LT ISZERO PUSH2 0x9EE JUMPI PUSH1 0x1 DUP5 DUP5 DUP4 DUP2 DUP2 LT PUSH2 0x932 JUMPI PUSH2 0x931 PUSH2 0x1A45 JUMP JUMPDEST JUMPDEST SWAP1 POP PUSH1 0x20 MUL DUP2 ADD SWAP1 PUSH2 0x944 SWAP2 SWAP1 PUSH2 0x1A83 JUMP JUMPDEST SWAP1 SWAP2 DUP1 PUSH1 0x1 DUP2 SLOAD ADD DUP1 DUP3 SSTORE DUP1 SWAP2 POP POP PUSH1 0x1 SWAP1 SUB SWAP1 PUSH1 0x0 MSTORE PUSH1 0x20 PUSH1 0x0 KECCAK256 ADD PUSH1 0x0 SWAP1 SWAP2 SWAP3 SWAP1 SWAP2 SWAP3 SWAP1 SWAP2 SWAP3 SWAP1 SWAP2 SWAP3 POP SWAP2 DUP3 PUSH2 0x97D SWAP3 SWAP2 SWAP1 PUSH2 0x1CCC JUMP JUMPDEST POP DUP1 PUSH32 0xF970AA486598017B8116C2BEB18C50D4584ECBC3C688817F59B26796725F31BF DUP6 DUP6 DUP5 DUP2 DUP2 LT PUSH2 0x9B3 JUMPI PUSH2 0x9B2 PUSH2 0x1A45 JUMP JUMPDEST JUMPDEST SWAP1 POP PUSH1 0x20 MUL DUP2 ADD SWAP1 PUSH2 0x9C5 SWAP2 SWAP1 PUSH2 0x1A83 JUMP JUMPDEST PUSH1 0x40 MLOAD PUSH2 0x9D3 SWAP3 SWAP2 SWAP1 PUSH2 0x1DD8 JUMP JUMPDEST PUSH1 0x40 MLOAD DUP1 SWAP2 SUB SWAP1 LOG2 DUP1 DUP1 PUSH2 0x9E6 SWAP1 PUSH2 0x1931 JUMP JUMPDEST SWAP2 POP POP PUSH2 0x912 JUMP JUMPDEST POP PUSH1 0x0 DUP1 PUSH1 0x14 SWAP1 SLOAD SWAP1 PUSH2 0x100 EXP SWAP1 DIV PUSH1 0xFF AND SWAP1 POP PUSH1 0x0 DUP1 PUSH1 0x14 PUSH2 0x100 EXP DUP2 SLOAD DUP2 PUSH1 0xFF MUL NOT AND SWAP1 DUP4 PUSH1 0x2 DUP2 GT ISZERO PUSH2 0xA27 JUMPI PUSH2 0xA26 PUSH2 0x16C0 JUMP JUMPDEST JUMPDEST MUL OR SWAP1 SSTORE POP PUSH32 0xEEB345FEA22465C927333E05D324EE5B476597701D8BE7E5D9AACC60E7AEFBAF DUP2 PUSH1 0x0 PUSH1 0x14 SWAP1 SLOAD SWAP1 PUSH2 0x100 EXP SWAP1 DIV PUSH1 0xFF AND PUSH1 0x40 MLOAD PUSH2 0xA6C SWAP3 SWAP2 SWAP1 PUSH2 0x1DFC JUMP JUMPDEST PUSH1 0x40 MLOAD DUP1 SWAP2 SUB SWAP1 LOG1 POP POP POP POP JUMP JUMPDEST PUSH2 0xA82 PUSH2 0x1119 JUMP JUMPDEST PUSH1 0x0 DUP1 PUSH1 0x2 DUP2 GT ISZERO PUSH2 0xA97 JUMPI PUSH2 0xA96 PUSH2 0x16C0 JUMP JUMPDEST JUMPDEST PUSH1 0x0 PUSH1 0x14 SWAP1 SLOAD SWAP1 PUSH2 0x100 EXP SWAP1 DIV PUSH1 0xFF AND PUSH1 0x2 DUP2 GT ISZERO PUSH2 0xAB9 JUMPI PUSH2 0xAB8 PUSH2 0x16C0 JUMP JUMPDEST JUMPDEST EQ PUSH2 0xAF9 JUMPI PUSH1 0x40 MLOAD PUSH32 0x8C379A000000000000000000000000000000000000000000000000000000000 DUP2 MSTORE PUSH1 0x4 ADD PUSH2 0xAF0 SWAP1 PUSH2 0x179E JUMP JUMPDEST PUSH1 0x40 MLOAD DUP1 SWAP2 SUB SWAP1 REVERT JUMPDEST PUSH1 0x1 DUP4 DUP4 SWAP1 SWAP2 DUP1 PUSH1 0x1 DUP2 SLOAD ADD DUP1 DUP3 SSTORE DUP1 SWAP2 POP POP PUSH1 0x1 SWAP1 SUB SWAP1 PUSH1 0x0 MSTORE PUSH1 0x20 PUSH1 0x0 KECCAK256 ADD PUSH1 0x0 SWAP1 SWAP2 SWAP3 SWAP1 SWAP2 SWAP3 SWAP1 SWAP2 SWAP3 SWAP1 SWAP2 SWAP3 POP SWAP2 DUP3 PUSH2 0xB36 SWAP3 SWAP2 SWAP1 PUSH2 0x1CCC JUMP JUMPDEST POP PUSH1 0x1 DUP1 DUP1 SLOAD SWAP1 POP PUSH2 0xB48 SWAP2 SWAP1 PUSH2 0x1E25 JUMP JUMPDEST PUSH32 0xF970AA486598017B8116C2BEB18C50D4584ECBC3C688817F59B26796725F31BF DUP5 DUP5 PUSH1 0x40 MLOAD PUSH2 0xB79 SWAP3 SWAP2 SWAP1 PUSH2 0x1DD8 JUMP JUMPDEST PUSH1 0x40 MLOAD DUP1 SWAP2 SUB SWAP1 LOG2 POP POP POP JUMP JUMPDEST PUSH1 0x0 PUSH1 0x3 PUSH1 0x0 DUP4 PUSH20 0xFFFFFFFFFFFFFFFFFFFFFFFFFFFFFFFFFFFFFFFF AND PUSH20 0xFFFFFFFFFFFFFFFFFFFFFFFFFFFFFFFFFFFFFFFF AND DUP2 MSTORE PUSH1 0x20 ADD SWAP1 DUP2 MSTORE PUSH1 0x20 ADD PUSH1 0x0 KECCAK256 PUSH1 0x0 SWAP1 SLOAD SWAP1 PUSH2 0x100 EXP SWAP1 DIV PUSH1 0xFF AND SWAP1 POP SWAP2 SWAP1 POP JUMP JUMPDEST PUSH1 0x0 DUP1 PUSH1 0x2 DUP1 PUSH1 0x2 DUP2 GT ISZERO PUSH2 0xBF4 JUMPI PUSH2 0xBF3 PUSH2 0x16C0 JUMP JUMPDEST JUMPDEST PUSH1 0x0 PUSH1 0x14 SWAP1 SLOAD SWAP1 PUSH2 0x100 EXP SWAP1 DIV PUSH1 0xFF AND PUSH1 0x2 DUP2 GT ISZERO PUSH2 0xC16 JUMPI PUSH2 0xC15 PUSH2 0x16C0 JUMP JUMPDEST JUMPDEST EQ PUSH2 0xC56 JUMPI PUSH1 0x40 MLOAD PUSH32 0x8C379A000000000000000000000000000000000000000000000000000000000 DUP2 MSTORE PUSH1 0x4 ADD PUSH2 0xC4D SWAP1 PUSH2 0x179E JUMP JUMPDEST PUSH1 0x40 MLOAD DUP1 SWAP2 SUB SWAP1 REVERT JUMPDEST PUSH1 0x0 PUSH1 0x1 DUP1 SLOAD SWAP1 POP GT PUSH2 0xC9E JUMPI PUSH1 0x40 MLOAD PUSH32 0x8C379A000000000000000000000000000000000000000000000000000000000 DUP2 MSTORE PUSH1 0x4 ADD PUSH2 0xC95 SWAP1 PUSH2 0x1EA5 JUMP JUMPDEST PUSH1 0x40 MLOAD DUP1 SWAP2 SUB SWAP1 REVERT JUMPDEST PUSH1 0x0 DUP1 PUSH1 0x0 JUMPDEST PUSH1 0x1 DUP1 SLOAD SWAP1 POP DUP2 LT ISZERO PUSH2 0xCF9 JUMPI DUP3 PUSH1 0x4 PUSH1 0x0 DUP4 DUP2 MSTORE PUSH1 0x20 ADD SWAP1 DUP2 MSTORE PUSH1 0x20 ADD PUSH1 0x0 KECCAK256 SLOAD GT ISZERO PUSH2 0xCE6 JUMPI PUSH1 0x4 PUSH1 0x0 DUP3 DUP2 MSTORE PUSH1 0x20 ADD SWAP1 DUP2 MSTORE PUSH1 0x20 ADD PUSH1 0x0 KECCAK256 SLOAD SWAP3 POP DUP1 SWAP2 POP JUMPDEST DUP1 DUP1 PUSH2 0xCF1 SWAP1 PUSH2 0x1931 JUMP JUMPDEST SWAP2 POP POP PUSH2 0xCA4 JUMP JUMPDEST POP DUP1 DUP3 SWAP5 POP SWAP5 POP POP POP POP SWAP1 SWAP2 JUMP JUMPDEST PUSH2 0xD0F PUSH2 0x1119 JUMP JUMPDEST PUSH2 0xD19 PUSH1 0x0 PUSH2 0x11A0 JUMP JUMPDEST JUMP JUMPDEST PUSH1 0x0 DUP1 PUSH1 0x0 SWAP1 SLOAD SWAP1 PUSH2 0x100 EXP SWAP1 DIV PUSH20 0xFFFFFFFFFFFFFFFFFFFFFFFFFFFFFFFFFFFFFFFF AND SWAP1 POP SWAP1 JUMP JUMPDEST PUSH1 0x5 SLOAD DUP2 JUMP JUMPDEST PUSH1 0x0 PUSH1 0x1 DUP1 SLOAD SWAP1 POP SWAP1 POP SWAP1 JUMP JUMPDEST PUSH1 0x0 PUSH1 0x14 SWAP1 SLOAD SWAP1 PUSH2 0x100 EXP SWAP1 DIV PUSH1 0xFF AND DUP2 JUMP JUMPDEST PUSH2 0xD72 PUSH2 0x1119 JUMP JUMPDEST PUSH1 0x0 DUP1 PUSH1 0x14 SWAP1 SLOAD SWAP1 PUSH2 0x100 EXP SWAP1 DIV PUSH1 0xFF AND SWAP1 POP PUSH1 0x0 PUSH1 0x2 DUP2 GT ISZERO PUSH2 0xD99 JUMPI PUSH2 0xD98 PUSH2 0x16C0 JUMP JUMPDEST JUMPDEST PUSH1 0x0 PUSH1 0x14 SWAP1 SLOAD SWAP1 PUSH2 0x100 EXP SWAP1 DIV PUSH1 0xFF AND PUSH1 0x2 DUP2 GT ISZERO PUSH2 0xDBB JUMPI PUSH2 0xDBA PUSH2 0x16C0 JUMP JUMPDEST JUMPDEST SUB PUSH2 0xDF0 JUMPI PUSH1 0x1 PUSH1 0x0 PUSH1 0x14 PUSH2 0x100 EXP DUP2 SLOAD DUP2 PUSH1 0xFF MUL NOT AND SWAP1 DUP4 PUSH1 0x2 DUP2 GT ISZERO PUSH2 0xDE6 JUMPI PUSH2 0xDE5 PUSH2 0x16C0 JUMP JUMPDEST JUMPDEST MUL OR SWAP1 SSTORE POP PUSH2 0xE97 JUMP JUMPDEST PUSH1 0x1 PUSH1 0x2 DUP2 GT ISZERO PUSH2 0xE04 JUMPI PUSH2 0xE03 PUSH2 0x16C0 JUMP JUMPDEST JUMPDEST PUSH1 0x0 PUSH1 0x14 SWAP1 SLOAD SWAP1 PUSH2 0x100 EXP SWAP1 DIV PUSH1 0xFF AND PUSH1 0x2 DUP2 GT ISZERO PUSH2 0xE26 JUMPI PUSH2 0xE25 PUSH2 0x16C0 JUMP JUMPDEST JUMPDEST SUB PUSH2 0xE5B JUMPI PUSH1 0x2 PUSH1 0x0 PUSH1 0x14 PUSH2 0x100 EXP DUP2 SLOAD DUP2 PUSH1 0xFF MUL NOT AND SWAP1 DUP4 PUSH1 0x2 DUP2 GT ISZERO PUSH2 0xE51 JUMPI PUSH2 0xE50 PUSH2 0x16C0 JUMP JUMPDEST JUMPDEST MUL OR SWAP1 SSTORE POP PUSH2 0xE96 JUMP JUMPDEST PUSH1 0x40 MLOAD PUSH32 0x8C379A000000000000000000000000000000000000000000000000000000000 DUP2 MSTORE PUSH1 0x4 ADD PUSH2 0xE8D SWAP1 PUSH2 0x1F11 JUMP JUMPDEST PUSH1 0x40 MLOAD DUP1 SWAP2 SUB SWAP1 REVERT JUMPDEST JUMPDEST PUSH32 0xEEB345FEA22465C927333E05D324EE5B476597701D8BE7E5D9AACC60E7AEFBAF DUP2 PUSH1 0x0 PUSH1 0x14 SWAP1 SLOAD SWAP1 PUSH2 0x100 EXP SWAP1 DIV PUSH1 0xFF AND PUSH1 0x40 MLOAD PUSH2 0xED7 SWAP3 SWAP2 SWAP1 PUSH2 0x1DFC JUMP JUMPDEST PUSH1 0x40 MLOAD DUP1 SWAP2 SUB SWAP1 LOG1 POP JUMP JUMPDEST PUSH1 0x0 PUSH1 0x2 PUSH1 0x0 DUP4 PUSH20 0xFFFFFFFFFFFFFFFFFFFFFFFFFFFFFFFFFFFFFFFF AND PUSH20 0xFFFFFFFFFFFFFFFFFFFFFFFFFFFFFFFFFFFFFFFF AND DUP2 MSTORE PUSH1 0x20 ADD SWAP1 DUP2 MSTORE PUSH1 0x20 ADD PUSH1 0x0 KECCAK256 PUSH1 0x0 SWAP1 SLOAD SWAP1 PUSH2 0x100 EXP SWAP1 DIV PUSH1 0xFF AND SWAP1 POP SWAP2 SWAP1 POP JUMP JUMPDEST PUSH1 0x60 PUSH1 0x1 DUP1 SLOAD SWAP1 POP DUP3 LT PUSH2 0xF81 JUMPI PUSH1 0x40 MLOAD PUSH32 0x8C379A000000000000000000000000000000000000000000000000000000000 DUP2 MSTORE PUSH1 0x4 ADD PUSH2 0xF78 SWAP1 PUSH2 0x1F7D JUMP JUMPDEST PUSH1 0x40 MLOAD DUP1 SWAP2 SUB SWAP1 REVERT JUMPDEST PUSH1 0x1 DUP3 DUP2 SLOAD DUP2 LT PUSH2 0xF95 JUMPI PUSH2 0xF94 PUSH2 0x1A45 JUMP JUMPDEST JUMPDEST SWAP1 PUSH1 0x0 MSTORE PUSH1 0x20 PUSH1 0x0 KECCAK256 ADD DUP1 SLOAD PUSH2 0xFAA SWAP1 PUSH2 0x19A8 JUMP JUMPDEST DUP1 PUSH1 0x1F ADD PUSH1 0x20 DUP1 SWAP2 DIV MUL PUSH1 0x20 ADD PUSH1 0x40 MLOAD SWAP1 DUP2 ADD PUSH1 0x40 MSTORE DUP1 SWAP3 SWAP2 SWAP1 DUP2 DUP2 MSTORE PUSH1 0x20 ADD DUP3 DUP1 SLOAD PUSH2 0xFD6 SWAP1 PUSH2 0x19A8 JUMP JUMPDEST DUP1 ISZERO PUSH2 0x1023 JUMPI DUP1 PUSH1 0x1F LT PUSH2 0xFF8 JUMPI PUSH2 0x100 DUP1 DUP4 SLOAD DIV MUL DUP4 MSTORE SWAP2 PUSH1 0x20 ADD SWAP2 PUSH2 0x1023 JUMP JUMPDEST DUP3 ADD SWAP2 SWAP1 PUSH1 0x0 MSTORE PUSH1 0x20 PUSH1 0x0 KECCAK256 SWAP1 JUMPDEST DUP2 SLOAD DUP2 MSTORE SWAP1 PUSH1 0x1 ADD SWAP1 PUSH1 0x20 ADD DUP1 DUP4 GT PUSH2 0x1006 JUMPI DUP3 SWAP1 SUB PUSH1 0x1F AND DUP3 ADD SWAP2 JUMPDEST POP POP POP POP POP SWAP1 POP SWAP2 SWAP1 POP JUMP JUMPDEST PUSH1 0x0 PUSH1 0x1 DUP1 SLOAD SWAP1 POP DUP3 LT PUSH2 0x1078 JUMPI PUSH1 0x40 MLOAD PUSH32 0x8C379A000000000000000000000000000000000000000000000000000000000 DUP2 MSTORE PUSH1 0x4 ADD PUSH2 0x106F SWAP1 PUSH2 0x1F7D JUMP JUMPDEST PUSH1 0x40 MLOAD DUP1 SWAP2 SUB SWAP1 REVERT JUMPDEST PUSH1 0x4 PUSH1 0x0 DUP4 DUP2 MSTORE PUSH1 0x20 ADD SWAP1 DUP2 MSTORE PUSH1 0x20 ADD PUSH1 0x0 KECCAK256 SLOAD SWAP1 POP SWAP2 SWAP1 POP JUMP JUMPDEST PUSH2 0x109B PUSH2 0x1119 JUMP JUMPDEST PUSH1 0x0 PUSH20 0xFFFFFFFFFFFFFFFFFFFFFFFFFFFFFFFFFFFFFFFF AND DUP2 PUSH20 0xFFFFFFFFFFFFFFFFFFFFFFFFFFFFFFFFFFFFFFFF AND SUB PUSH2 0x110D JUMPI PUSH1 0x0 PUSH1 0x40 MLOAD PUSH32 0x1E4FBDF700000000000000000000000000000000000000000000000000000000 DUP2 MSTORE PUSH1 0x4 ADD PUSH2 0x1104 SWAP2 SWAP1 PUSH2 0x16A5 JUMP JUMPDEST PUSH1 0x40 MLOAD DUP1 SWAP2 SUB SWAP1 REVERT JUMPDEST PUSH2 0x1116 DUP2 PUSH2 0x11A0 JUMP JUMPDEST POP JUMP JUMPDEST PUSH2 0x1121 PUSH2 0x1264 JUMP JUMPDEST PUSH20 0xFFFFFFFFFFFFFFFFFFFFFFFFFFFFFFFFFFFFFFFF AND PUSH2 0x113F PUSH2 0xD1B JUMP JUMPDEST PUSH20 0xFFFFFFFFFFFFFFFFFFFFFFFFFFFFFFFFFFFFFFFF AND EQ PUSH2 0x119E JUMPI PUSH2 0x1162 PUSH2 0x1264 JUMP JUMPDEST PUSH1 0x40 MLOAD PUSH32 0x118CDAA700000000000000000000000000000000000000000000000000000000 DUP2 MSTORE PUSH1 0x4 ADD PUSH2 0x1195 SWAP2 SWAP1 PUSH2 0x16A5 JUMP JUMPDEST PUSH1 0x40 MLOAD DUP1 SWAP2 SUB SWAP1 REVERT JUMPDEST JUMP JUMPDEST PUSH1 0x0 DUP1 PUSH1 0x0 SWAP1 SLOAD SWAP1 PUSH2 0x100 EXP SWAP1 DIV PUSH20 0xFFFFFFFFFFFFFFFFFFFFFFFFFFFFFFFFFFFFFFFF AND SWAP1 POP DUP2 PUSH1 0x0 DUP1 PUSH2 0x100 EXP DUP2 SLOAD DUP2 PUSH20 0xFFFFFFFFFFFFFFFFFFFFFFFFFFFFFFFFFFFFFFFF MUL NOT AND SWAP1 DUP4 PUSH20 0xFFFFFFFFFFFFFFFFFFFFFFFFFFFFFFFFFFFFFFFF AND MUL OR SWAP1 SSTORE POP DUP2 PUSH20 0xFFFFFFFFFFFFFFFFFFFFFFFFFFFFFFFFFFFFFFFF AND DUP2 PUSH20 0xFFFFFFFFFFFFFFFFFFFFFFFFFFFFFFFFFFFFFFFF AND PUSH32 0x8BE0079C531659141344CD1FD0A4F28419497F9722A3DAAFE3B4186F6B6457E0 PUSH1 0x40 MLOAD PUSH1 0x40 MLOAD DUP1 SWAP2 SUB SWAP1 LOG3 POP POP JUMP JUMPDEST PUSH1 0x0 CALLER SWAP1 POP SWAP1 JUMP JUMPDEST POP DUP1 SLOAD PUSH1 0x0 DUP3 SSTORE SWAP1 PUSH1 0x0 MSTORE PUSH1 0x20 PUSH1 0x0 KECCAK256 SWAP1 DUP2 ADD SWAP1 PUSH2 0x128A SWAP2 SWAP1 PUSH2 0x128D JUMP JUMPDEST POP JUMP JUMPDEST JUMPDEST DUP1 DUP3 GT ISZERO PUSH2 0x12AD JUMPI PUSH1 0x0 DUP2 DUP2 PUSH2 0x12A4 SWAP2 SWAP1 PUSH2 0x12B1 JUMP JUMPDEST POP PUSH1 0x1 ADD PUSH2 0x128E JUMP JUMPDEST POP SWAP1 JUMP JUMPDEST POP DUP1 SLOAD PUSH2 0x12BD SWAP1 PUSH2 0x19A8 JUMP JUMPDEST PUSH1 0x0 DUP3 SSTORE DUP1 PUSH1 0x1F LT PUSH2 0x12CF JUMPI POP PUSH2 0x12EE JUMP JUMPDEST PUSH1 0x1F ADD PUSH1 0x20 SWAP1 DIV SWAP1 PUSH1 0x0 MSTORE PUSH1 0x20 PUSH1 0x0 KECCAK256 SWAP1 DUP2 ADD SWAP1 PUSH2 0x12ED SWAP2 SWAP1 PUSH2 0x12F1 JUMP JUMPDEST JUMPDEST POP JUMP JUMPDEST JUMPDEST DUP1 DUP3 GT ISZERO PUSH2 0x130A JUMPI PUSH1 0x0 DUP2 PUSH1 0x0 SWAP1 SSTORE POP PUSH1 0x1 ADD PUSH2 0x12F2 JUMP JUMPDEST POP SWAP1 JUMP JUMPDEST PUSH1 0x0 DUP1 REVERT JUMPDEST PUSH1 0x0 DUP1 REVERT JUMPDEST PUSH1 0x0 DUP2 SWAP1 POP SWAP2 SWAP1 POP JUMP JUMPDEST PUSH2 0x132B DUP2 PUSH2 0x1318 JUMP JUMPDEST DUP2 EQ PUSH2 0x1336 JUMPI PUSH1 0x0 DUP1 REVERT JUMPDEST POP JUMP JUMPDEST PUSH1 0x0 DUP2 CALLDATALOAD SWAP1 POP PUSH2 0x1348 DUP2 PUSH2 0x1322 JUMP JUMPDEST SWAP3 SWAP2 POP POP JUMP JUMPDEST PUSH1 0x0 PUSH1 0x20 DUP3 DUP5 SUB SLT ISZERO PUSH2 0x1364 JUMPI PUSH2 0x1363 PUSH2 0x130E JUMP JUMPDEST JUMPDEST PUSH1 0x0 PUSH2 0x1372 DUP5 DUP3 DUP6 ADD PUSH2 0x1339 JUMP JUMPDEST SWAP2 POP POP SWAP3 SWAP2 POP POP JUMP JUMPDEST PUSH1 0x0 DUP2 MLOAD SWAP1 POP SWAP2 SWAP1 POP JUMP JUMPDEST PUSH1 0x0 DUP3 DUP3 MSTORE PUSH1 0x20 DUP3 ADD SWAP1 POP SWAP3 SWAP2 POP POP JUMP JUMPDEST PUSH1 0x0 JUMPDEST DUP4 DUP2 LT ISZERO PUSH2 0x13B5 JUMPI DUP1 DUP3 ADD MLOAD DUP2 DUP5 ADD MSTORE PUSH1 0x20 DUP2 ADD SWAP1 POP PUSH2 0x139A JUMP JUMPDEST PUSH1 0x0 DUP5 DUP5 ADD MSTORE POP POP POP POP JUMP JUMPDEST PUSH1 0x0 PUSH1 0x1F NOT PUSH1 0x1F DUP4 ADD AND SWAP1 POP SWAP2 SWAP1 POP JUMP JUMPDEST PUSH1 0x0 PUSH2 0x13DD DUP3 PUSH2 0x137B JUMP JUMPDEST PUSH2 0x13E7 DUP2 DUP6 PUSH2 0x1386 JUMP JUMPDEST SWAP4 POP PUSH2 0x13F7 DUP2 DUP6 PUSH1 0x20 DUP7 ADD PUSH2 0x1397 JUMP JUMPDEST PUSH2 0x1400 DUP2 PUSH2 0x13C1 JUMP JUMPDEST DUP5 ADD SWAP2 POP POP SWAP3 SWAP2 POP POP JUMP JUMPDEST PUSH1 0x0 PUSH1 0x20 DUP3 ADD SWAP1 POP DUP2 DUP2 SUB PUSH1 0x0 DUP4 ADD MSTORE PUSH2 0x1425 DUP2 DUP5 PUSH2 0x13D2 JUMP JUMPDEST SWAP1 POP SWAP3 SWAP2 POP POP JUMP JUMPDEST PUSH2 0x1436 DUP2 PUSH2 0x1318 JUMP JUMPDEST DUP3 MSTORE POP POP JUMP JUMPDEST PUSH1 0x0 PUSH1 0x20 DUP3 ADD SWAP1 POP PUSH2 0x1451 PUSH1 0x0 DUP4 ADD DUP5 PUSH2 0x142D JUMP JUMPDEST SWAP3 SWAP2 POP POP JUMP JUMPDEST PUSH1 0x0 DUP1 REVERT JUMPDEST PUSH1 0x0 DUP1 REVERT JUMPDEST PUSH1 0x0 DUP1 REVERT JUMPDEST PUSH1 0x0 DUP1 DUP4 PUSH1 0x1F DUP5 ADD SLT PUSH2 0x147C JUMPI PUSH2 0x147B PUSH2 0x1457 JUMP JUMPDEST JUMPDEST DUP3 CALLDATALOAD SWAP1 POP PUSH8 0xFFFFFFFFFFFFFFFF DUP2 GT ISZERO PUSH2 0x1499 JUMPI PUSH2 0x1498 PUSH2 0x145C JUMP JUMPDEST JUMPDEST PUSH1 0x20 DUP4 ADD SWAP2 POP DUP4 PUSH1 0x20 DUP3 MUL DUP4 ADD GT ISZERO PUSH2 0x14B5 JUMPI PUSH2 0x14B4 PUSH2 0x1461 JUMP JUMPDEST JUMPDEST SWAP3 POP SWAP3 SWAP1 POP JUMP JUMPDEST PUSH1 0x0 DUP1 PUSH1 0x20 DUP4 DUP6 SUB SLT ISZERO PUSH2 0x14D3 JUMPI PUSH2 0x14D2 PUSH2 0x130E JUMP JUMPDEST JUMPDEST PUSH1 0x0 DUP4 ADD CALLDATALOAD PUSH8 0xFFFFFFFFFFFFFFFF DUP2 GT ISZERO PUSH2 0x14F1 JUMPI PUSH2 0x14F0 PUSH2 0x1313 JUMP JUMPDEST JUMPDEST PUSH2 0x14FD DUP6 DUP3 DUP7 ADD PUSH2 0x1466 JUMP JUMPDEST SWAP3 POP SWAP3 POP POP SWAP3 POP SWAP3 SWAP1 POP JUMP JUMPDEST PUSH1 0x0 DUP1 DUP4 PUSH1 0x1F DUP5 ADD SLT PUSH2 0x151F JUMPI PUSH2 0x151E PUSH2 0x1457 JUMP JUMPDEST JUMPDEST DUP3 CALLDATALOAD SWAP1 POP PUSH8 0xFFFFFFFFFFFFFFFF DUP2 GT ISZERO PUSH2 0x153C JUMPI PUSH2 0x153B PUSH2 0x145C JUMP JUMPDEST JUMPDEST PUSH1 0x20 DUP4 ADD SWAP2 POP DUP4 PUSH1 0x1 DUP3 MUL DUP4 ADD GT ISZERO PUSH2 0x1558 JUMPI PUSH2 0x1557 PUSH2 0x1461 JUMP JUMPDEST JUMPDEST SWAP3 POP SWAP3 SWAP1 POP JUMP JUMPDEST PUSH1 0x0 DUP1 PUSH1 0x20 DUP4 DUP6 SUB SLT ISZERO PUSH2 0x1576 JUMPI PUSH2 0x1575 PUSH2 0x130E JUMP JUMPDEST JUMPDEST PUSH1 0x0 DUP4 ADD CALLDATALOAD PUSH8 0xFFFFFFFFFFFFFFFF DUP2 GT ISZERO PUSH2 0x1594 JUMPI PUSH2 0x1593 PUSH2 0x1313 JUMP JUMPDEST JUMPDEST PUSH2 0x15A0 DUP6 DUP3 DUP7 ADD PUSH2 0x1509 JUMP JUMPDEST SWAP3 POP SWAP3 POP POP SWAP3 POP SWAP3 SWAP1 POP JUMP JUMPDEST PUSH1 0x0 PUSH20 0xFFFFFFFFFFFFFFFFFFFFFFFFFFFFFFFFFFFFFFFF DUP3 AND SWAP1 POP SWAP2 SWAP1 POP JUMP JUMPDEST PUSH1 0x0 PUSH2 0x15D7 DUP3 PUSH2 0x15AC JUMP JUMPDEST SWAP1 POP SWAP2 SWAP1 POP JUMP JUMPDEST PUSH2 0x15E7 DUP2 PUSH2 0x15CC JUMP JUMPDEST DUP2 EQ PUSH2 0x15F2 JUMPI PUSH1 0x0 DUP1 REVERT JUMPDEST POP JUMP JUMPDEST PUSH1 0x0 DUP2 CALLDATALOAD SWAP1 POP PUSH2 0x1604 DUP2 PUSH2 0x15DE JUMP JUMPDEST SWAP3 SWAP2 POP POP JUMP JUMPDEST PUSH1 0x0 PUSH1 0x20 DUP3 DUP5 SUB SLT ISZERO PUSH2 0x1620 JUMPI PUSH2 0x161F PUSH2 0x130E JUMP JUMPDEST JUMPDEST PUSH1 0x0 PUSH2 0x162E DUP5 DUP3 DUP6 ADD PUSH2 0x15F5 JUMP JUMPDEST SWAP2 POP POP SWAP3 SWAP2 POP POP JUMP JUMPDEST PUSH1 0x0 DUP2 ISZERO ISZERO SWAP1 POP SWAP2 SWAP1 POP JUMP JUMPDEST PUSH2 0x164C DUP2 PUSH2 0x1637 JUMP JUMPDEST DUP3 MSTORE POP POP JUMP JUMPDEST PUSH1 0x0 PUSH1 0x20 DUP3 ADD SWAP1 POP PUSH2 0x1667 PUSH1 0x0 DUP4 ADD DUP5 PUSH2 0x1643 JUMP JUMPDEST SWAP3 SWAP2 POP POP JUMP JUMPDEST PUSH1 0x0 PUSH1 0x40 DUP3 ADD SWAP1 POP PUSH2 0x1682 PUSH1 0x0 DUP4 ADD DUP6 PUSH2 0x142D JUMP JUMPDEST PUSH2 0x168F PUSH1 0x20 DUP4 ADD DUP5 PUSH2 0x142D JUMP JUMPDEST SWAP4 SWAP3 POP POP POP JUMP JUMPDEST PUSH2 0x169F DUP2 PUSH2 0x15CC JUMP JUMPDEST DUP3 MSTORE POP POP JUMP JUMPDEST PUSH1 0x0 PUSH1 0x20 DUP3 ADD SWAP1 POP PUSH2 0x16BA PUSH1 0x0 DUP4 ADD DUP5 PUSH2 0x1696 JUMP JUMPDEST SWAP3 SWAP2 POP POP JUMP JUMPDEST PUSH32 0x4E487B7100000000000000000000000000000000000000000000000000000000 PUSH1 0x0 MSTORE PUSH1 0x21 PUSH1 0x4 MSTORE PUSH1 0x24 PUSH1 0x0 REVERT JUMPDEST PUSH1 0x3 DUP2 LT PUSH2 0x1700 JUMPI PUSH2 0x16FF PUSH2 0x16C0 JUMP JUMPDEST JUMPDEST POP JUMP JUMPDEST PUSH1 0x0 DUP2 SWAP1 POP PUSH2 0x1711 DUP3 PUSH2 0x16EF JUMP JUMPDEST SWAP2 SWAP1 POP JUMP JUMPDEST PUSH1 0x0 PUSH2 0x1721 DUP3 PUSH2 0x1703 JUMP JUMPDEST SWAP1 POP SWAP2 SWAP1 POP JUMP JUMPDEST PUSH2 0x1731 DUP2 PUSH2 0x1716 JUMP JUMPDEST DUP3 MSTORE POP POP JUMP JUMPDEST PUSH1 0x0 PUSH1 0x20 DUP3 ADD SWAP1 POP PUSH2 0x174C PUSH1 0x0 DUP4 ADD DUP5 PUSH2 0x1728 JUMP JUMPDEST SWAP3 SWAP2 POP POP JUMP JUMPDEST PUSH32 0x496E76616C696420706861736500000000000000000000000000000000000000 PUSH1 0x0 DUP3 ADD MSTORE POP JUMP JUMPDEST PUSH1 0x0 PUSH2 0x1788 PUSH1 0xD DUP4 PUSH2 0x1386 JUMP JUMPDEST SWAP2 POP PUSH2 0x1793 DUP3 PUSH2 0x1752 JUMP JUMPDEST PUSH1 0x20 DUP3 ADD SWAP1 POP SWAP2 SWAP1 POP JUMP JUMPDEST PUSH1 0x0 PUSH1 0x20 DUP3 ADD SWAP1 POP DUP2 DUP2 SUB PUSH1 0x0 DUP4 ADD MSTORE PUSH2 0x17B7 DUP2 PUSH2 0x177B JUMP JUMPDEST SWAP1 POP SWAP2 SWAP1 POP JUMP JUMPDEST PUSH32 0x4E6F742072656769737465726564000000000000000000000000000000000000 PUSH1 0x0 DUP3 ADD MSTORE POP JUMP JUMPDEST PUSH1 0x0 PUSH2 0x17F4 PUSH1 0xE DUP4 PUSH2 0x1386 JUMP JUMPDEST SWAP2 POP PUSH2 0x17FF DUP3 PUSH2 0x17BE JUMP JUMPDEST PUSH1 0x20 DUP3 ADD SWAP1 POP SWAP2 SWAP1 POP JUMP JUMPDEST PUSH1 0x0 PUSH1 0x20 DUP3 ADD SWAP1 POP DUP2 DUP2 SUB PUSH1 0x0 DUP4 ADD MSTORE PUSH2 0x1823 DUP2 PUSH2 0x17E7 JUMP JUMPDEST SWAP1 POP SWAP2 SWAP1 POP JUMP JUMPDEST PUSH32 0x416C726561647920766F74656400000000000000000000000000000000000000 PUSH1 0x0 DUP3 ADD MSTORE POP JUMP JUMPDEST PUSH1 0x0 PUSH2 0x1860 PUSH1 0xD DUP4 PUSH2 0x1386 JUMP JUMPDEST SWAP2 POP PUSH2 0x186B DUP3 PUSH2 0x182A JUMP JUMPDEST PUSH1 0x20 DUP3 ADD SWAP1 POP SWAP2 SWAP1 POP JUMP JUMPDEST PUSH1 0x0 PUSH1 0x20 DUP3 ADD SWAP1 POP DUP2 DUP2 SUB PUSH1 0x0 DUP4 ADD MSTORE PUSH2 0x188F DUP2 PUSH2 0x1853 JUMP JUMPDEST SWAP1 POP SWAP2 SWAP1 POP JUMP JUMPDEST PUSH32 0x496E76616C69642070726F706F73616C00000000000000000000000000000000 PUSH1 0x0 DUP3 ADD MSTORE POP JUMP JUMPDEST PUSH1 0x0 PUSH2 0x18CC PUSH1 0x10 DUP4 PUSH2 0x1386 JUMP JUMPDEST SWAP2 POP PUSH2 0x18D7 DUP3 PUSH2 0x1896 JUMP JUMPDEST PUSH1 0x20 DUP3 ADD SWAP1 POP SWAP2 SWAP1 POP JUMP JUMPDEST PUSH1 0x0 PUSH1 0x20 DUP3 ADD SWAP1 POP DUP2 DUP2 SUB PUSH1 0x0 DUP4 ADD MSTORE PUSH2 0x18FB DUP2 PUSH2 0x18BF JUMP JUMPDEST SWAP1 POP SWAP2 SWAP1 POP JUMP JUMPDEST PUSH32 0x4E487B7100000000000000000000000000000000000000000000000000000000 PUSH1 0x0 MSTORE PUSH1 0x11 PUSH1 0x4 MSTORE PUSH1 0x24 PUSH1 0x0 REVERT JUMPDEST PUSH1 0x0 PUSH2 0x193C DUP3 PUSH2 0x1318 JUMP JUMPDEST SWAP2 POP PUSH32 0xFFFFFFFFFFFFFFFFFFFFFFFFFFFFFFFFFFFFFFFFFFFFFFFFFFFFFFFFFFFFFFFF DUP3 SUB PUSH2 0x196E JUMPI PUSH2 0x196D PUSH2 0x1902 JUMP JUMPDEST JUMPDEST PUSH1 0x1 DUP3 ADD SWAP1 POP SWAP2 SWAP1 POP JUMP JUMPDEST PUSH32 0x4E487B7100000000000000000000000000000000000000000000000000000000 PUSH1 0x0 MSTORE PUSH1 0x22 PUSH1 0x4 MSTORE PUSH1 0x24 PUSH1 0x0 REVERT JUMPDEST PUSH1 0x0 PUSH1 0x2 DUP3 DIV SWAP1 POP PUSH1 0x1 DUP3 AND DUP1 PUSH2 0x19C0 JUMPI PUSH1 0x7F DUP3 AND SWAP2 POP JUMPDEST PUSH1 0x20 DUP3 LT DUP2 SUB PUSH2 0x19D3 JUMPI PUSH2 0x19D2 PUSH2 0x1979 JUMP JUMPDEST JUMPDEST POP SWAP2 SWAP1 POP JUMP JUMPDEST PUSH32 0x416C726561647920726567697374657265640000000000000000000000000000 PUSH1 0x0 DUP3 ADD MSTORE POP JUMP JUMPDEST PUSH1 0x0 PUSH2 0x1A0F PUSH1 0x12 DUP4 PUSH2 0x1386 JUMP JUMPDEST SWAP2 POP PUSH2 0x1A1A DUP3 PUSH2 0x19D9 JUMP JUMPDEST PUSH1 0x20 DUP3 ADD SWAP1 POP SWAP2 SWAP1 POP JUMP JUMPDEST PUSH1 0x0 PUSH1 0x20 DUP3 ADD SWAP1 POP DUP2 DUP2 SUB PUSH1 0x0 DUP4 ADD MSTORE PUSH2 0x1A3E DUP2 PUSH2 0x1A02 JUMP JUMPDEST SWAP1 POP SWAP2 SWAP1 POP JUMP JUMPDEST PUSH32 0x4E487B7100000000000000000000000000000000000000000000000000000000 PUSH1 0x0 MSTORE PUSH1 0x32 PUSH1 0x4 MSTORE PUSH1 0x24 PUSH1 0x0 REVERT JUMPDEST PUSH1 0x0 DUP1 REVERT JUMPDEST PUSH1 0x0 DUP1 REVERT JUMPDEST PUSH1 0x0 DUP1 REVERT JUMPDEST PUSH1 0x0 DUP1 DUP4 CALLDATALOAD PUSH1 0x1 PUSH1 0x20 SUB DUP5 CALLDATASIZE SUB SUB DUP2 SLT PUSH2 0x1AA0 JUMPI PUSH2 0x1A9F PUSH2 0x1A74 JUMP JUMPDEST JUMPDEST DUP1 DUP5 ADD SWAP3 POP DUP3 CALLDATALOAD SWAP2 POP PUSH8 0xFFFFFFFFFFFFFFFF DUP3 GT ISZERO PUSH2 0x1AC2 JUMPI PUSH2 0x1AC1 PUSH2 0x1A79 JUMP JUMPDEST JUMPDEST PUSH1 0x20 DUP4 ADD SWAP3 POP PUSH1 0x1 DUP3 MUL CALLDATASIZE SUB DUP4 SGT ISZERO PUSH2 0x1ADE JUMPI PUSH2 0x1ADD PUSH2 0x1A7E JUMP JUMPDEST JUMPDEST POP SWAP3 POP SWAP3 SWAP1 POP JUMP JUMPDEST PUSH1 0x0 DUP3 SWAP1 POP SWAP3 SWAP2 POP POP JUMP JUMPDEST PUSH32 0x4E487B7100000000000000000000000000000000000000000000000000000000 PUSH1 0x0 MSTORE PUSH1 0x41 PUSH1 0x4 MSTORE PUSH1 0x24 PUSH1 0x0 REVERT JUMPDEST PUSH1 0x0 DUP2 SWAP1 POP DUP2 PUSH1 0x0 MSTORE PUSH1 0x20 PUSH1 0x0 KECCAK256 SWAP1 POP SWAP2 SWAP1 POP JUMP JUMPDEST PUSH1 0x0 PUSH1 0x20 PUSH1 0x1F DUP4 ADD DIV SWAP1 POP SWAP2 SWAP1 POP JUMP JUMPDEST PUSH1 0x0 DUP3 DUP3 SHL SWAP1 POP SWAP3 SWAP2 POP POP JUMP JUMPDEST PUSH1 0x0 PUSH1 0x8 DUP4 MUL PUSH2 0x1B82 PUSH32 0xFFFFFFFFFFFFFFFFFFFFFFFFFFFFFFFFFFFFFFFFFFFFFFFFFFFFFFFFFFFFFFFF DUP3 PUSH2 0x1B45 JUMP JUMPDEST PUSH2 0x1B8C DUP7 DUP4 PUSH2 0x1B45 JUMP JUMPDEST SWAP6 POP DUP1 NOT DUP5 AND SWAP4 POP DUP1 DUP7 AND DUP5 OR SWAP3 POP POP POP SWAP4 SWAP3 POP POP POP JUMP JUMPDEST PUSH1 0x0 DUP2 SWAP1 POP SWAP2 SWAP1 POP JUMP JUMPDEST PUSH1 0x0 PUSH2 0x1BC9 PUSH2 0x1BC4 PUSH2 0x1BBF DUP5 PUSH2 0x1318 JUMP JUMPDEST PUSH2 0x1BA4 JUMP JUMPDEST PUSH2 0x1318 JUMP JUMPDEST SWAP1 POP SWAP2 SWAP1 POP JUMP JUMPDEST PUSH1 0x0 DUP2 SWAP1 POP SWAP2 SWAP1 POP JUMP JUMPDEST PUSH2 0x1BE3 DUP4 PUSH2 0x1BAE JUMP JUMPDEST PUSH2 0x1BF7 PUSH2 0x1BEF DUP3 PUSH2 0x1BD0 JUMP JUMPDEST DUP5 DUP5 SLOAD PUSH2 0x1B52 JUMP JUMPDEST DUP3 SSTORE POP POP POP POP JUMP JUMPDEST PUSH1 0x0 SWAP1 JUMP JUMPDEST PUSH2 0x1C0C PUSH2 0x1BFF JUMP JUMPDEST PUSH2 0x1C17 DUP2 DUP5 DUP5 PUSH2 0x1BDA JUMP JUMPDEST POP POP POP JUMP JUMPDEST JUMPDEST DUP2 DUP2 LT ISZERO PUSH2 0x1C3B JUMPI PUSH2 0x1C30 PUSH1 0x0 DUP3 PUSH2 0x1C04 JUMP JUMPDEST PUSH1 0x1 DUP2 ADD SWAP1 POP PUSH2 0x1C1D JUMP JUMPDEST POP POP JUMP JUMPDEST PUSH1 0x1F DUP3 GT ISZERO PUSH2 0x1C80 JUMPI PUSH2 0x1C51 DUP2 PUSH2 0x1B20 JUMP JUMPDEST PUSH2 0x1C5A DUP5 PUSH2 0x1B35 JUMP JUMPDEST DUP2 ADD PUSH1 0x20 DUP6 LT ISZERO PUSH2 0x1C69 JUMPI DUP2 SWAP1 POP JUMPDEST PUSH2 0x1C7D PUSH2 0x1C75 DUP6 PUSH2 0x1B35 JUMP JUMPDEST DUP4 ADD DUP3 PUSH2 0x1C1C JUMP JUMPDEST POP POP JUMPDEST POP POP POP JUMP JUMPDEST PUSH1 0x0 DUP3 DUP3 SHR SWAP1 POP SWAP3 SWAP2 POP POP JUMP JUMPDEST PUSH1 0x0 PUSH2 0x1CA3 PUSH1 0x0 NOT DUP5 PUSH1 0x8 MUL PUSH2 0x1C85 JUMP JUMPDEST NOT DUP1 DUP4 AND SWAP2 POP POP SWAP3 SWAP2 POP POP JUMP JUMPDEST PUSH1 0x0 PUSH2 0x1CBC DUP4 DUP4 PUSH2 0x1C92 JUMP JUMPDEST SWAP2 POP DUP3 PUSH1 0x2 MUL DUP3 OR SWAP1 POP SWAP3 SWAP2 POP POP JUMP JUMPDEST PUSH2 0x1CD6 DUP4 DUP4 PUSH2 0x1AE6 JUMP JUMPDEST PUSH8 0xFFFFFFFFFFFFFFFF DUP2 GT ISZERO PUSH2 0x1CEF JUMPI PUSH2 0x1CEE PUSH2 0x1AF1 JUMP JUMPDEST JUMPDEST PUSH2 0x1CF9 DUP3 SLOAD PUSH2 0x19A8 JUMP JUMPDEST PUSH2 0x1D04 DUP3 DUP3 DUP6 PUSH2 0x1C3F JUMP JUMPDEST PUSH1 0x0 PUSH1 0x1F DUP4 GT PUSH1 0x1 DUP2 EQ PUSH2 0x1D33 JUMPI PUSH1 0x0 DUP5 ISZERO PUSH2 0x1D21 JUMPI DUP3 DUP8 ADD CALLDATALOAD SWAP1 POP JUMPDEST PUSH2 0x1D2B DUP6 DUP3 PUSH2 0x1CB0 JUMP JUMPDEST DUP7 SSTORE POP PUSH2 0x1D93 JUMP JUMPDEST PUSH1 0x1F NOT DUP5 AND PUSH2 0x1D41 DUP7 PUSH2 0x1B20 JUMP JUMPDEST PUSH1 0x0 JUMPDEST DUP3 DUP2 LT ISZERO PUSH2 0x1D69 JUMPI DUP5 DUP10 ADD CALLDATALOAD DUP3 SSTORE PUSH1 0x1 DUP3 ADD SWAP2 POP PUSH1 0x20 DUP6 ADD SWAP5 POP PUSH1 0x20 DUP2 ADD SWAP1 POP PUSH2 0x1D44 JUMP JUMPDEST DUP7 DUP4 LT ISZERO PUSH2 0x1D86 JUMPI DUP5 DUP10 ADD CALLDATALOAD PUSH2 0x1D82 PUSH1 0x1F DUP10 AND DUP3 PUSH2 0x1C92 JUMP JUMPDEST DUP4 SSTORE POP JUMPDEST PUSH1 0x1 PUSH1 0x2 DUP9 MUL ADD DUP9 SSTORE POP POP POP JUMPDEST POP POP POP POP POP POP POP JUMP JUMPDEST DUP3 DUP2 DUP4 CALLDATACOPY PUSH1 0x0 DUP4 DUP4 ADD MSTORE POP POP POP JUMP JUMPDEST PUSH1 0x0 PUSH2 0x1DB7 DUP4 DUP6 PUSH2 0x1386 JUMP JUMPDEST SWAP4 POP PUSH2 0x1DC4 DUP4 DUP6 DUP5 PUSH2 0x1D9C JUMP JUMPDEST PUSH2 0x1DCD DUP4 PUSH2 0x13C1 JUMP JUMPDEST DUP5 ADD SWAP1 POP SWAP4 SWAP3 POP POP POP JUMP JUMPDEST PUSH1 0x0 PUSH1 0x20 DUP3 ADD SWAP1 POP DUP2 DUP2 SUB PUSH1 0x0 DUP4 ADD MSTORE PUSH2 0x1DF3 DUP2 DUP5 DUP7 PUSH2 0x1DAB JUMP JUMPDEST SWAP1 POP SWAP4 SWAP3 POP POP POP JUMP JUMPDEST PUSH1 0x0 PUSH1 0x40 DUP3 ADD SWAP1 POP PUSH2 0x1E11 PUSH1 0x0 DUP4 ADD DUP6 PUSH2 0x1728 JUMP JUMPDEST PUSH2 0x1E1E PUSH1 0x20 DUP4 ADD DUP5 PUSH2 0x1728 JUMP JUMPDEST SWAP4 SWAP3 POP POP POP JUMP JUMPDEST PUSH1 0x0 PUSH2 0x1E30 DUP3 PUSH2 0x1318 JUMP JUMPDEST SWAP2 POP PUSH2 0x1E3B DUP4 PUSH2 0x1318 JUMP JUMPDEST SWAP3 POP DUP3 DUP3 SUB SWAP1 POP DUP2 DUP2 GT ISZERO PUSH2 0x1E53 JUMPI PUSH2 0x1E52 PUSH2 0x1902 JUMP JUMPDEST JUMPDEST SWAP3 SWAP2 POP POP JUMP JUMPDEST PUSH32 0x4E6F2070726F706F73616C730000000000000000000000000000000000000000 PUSH1 0x0 DUP3 ADD MSTORE POP JUMP JUMPDEST PUSH1 0x0 PUSH2 0x1E8F PUSH1 0xC DUP4 PUSH2 0x1386 JUMP JUMPDEST SWAP2 POP PUSH2 0x1E9A DUP3 PUSH2 0x1E59 JUMP JUMPDEST PUSH1 0x20 DUP3 ADD SWAP1 POP SWAP2 SWAP1 POP JUMP JUMPDEST PUSH1 0x0 PUSH1 0x20 DUP3 ADD SWAP1 POP DUP2 DUP2 SUB PUSH1 0x0 DUP4 ADD MSTORE PUSH2 0x1EBE DUP2 PUSH2 0x1E82 JUMP JUMPDEST SWAP1 POP SWAP2 SWAP1 POP JUMP JUMPDEST PUSH32 0x416C726561647920656E64656400000000000000000000000000000000000000 PUSH1 0x0 DUP3 ADD MSTORE POP JUMP JUMPDEST PUSH1 0x0 PUSH2 0x1EFB PUSH1 0xD DUP4 PUSH2 0x1386 JUMP JUMPDEST SWAP2 POP PUSH2 0x1F06 DUP3 PUSH2 0x1EC5 JUMP JUMPDEST PUSH1 0x20 DUP3 ADD SWAP1 POP SWAP2 SWAP1 POP JUMP JUMPDEST PUSH1 0x0 PUSH1 0x20 DUP3 ADD SWAP1 POP DUP2 DUP2 SUB PUSH1 0x0 DUP4 ADD MSTORE PUSH2 0x1F2A DUP2 PUSH2 0x1EEE JUMP JUMPDEST SWAP1 POP SWAP2 SWAP1 POP JUMP JUMPDEST PUSH32 0x496E76616C696420696E64657800000000000000000000000000000000000000 PUSH1 0x0 DUP3 ADD MSTORE POP JUMP JUMPDEST PUSH1 0x0 PUSH2 0x1F67 PUSH1 0xD DUP4 PUSH2 0x1386 JUMP JUMPDEST SWAP2 POP PUSH2 0x1F72 DUP3 PUSH2 0x1F31 JUMP JUMPDEST PUSH1 0x20 DUP3 ADD SWAP1 POP SWAP2 SWAP1 POP JUMP JUMPDEST PUSH1 0x0 PUSH1 0x20 DUP3 ADD SWAP1 POP DUP2 DUP2 SUB PUSH1 0x0 DUP4 ADD MSTORE PUSH2 0x1F96 DUP2 PUSH2 0x1F5A JUMP JUMPDEST SWAP1 POP SWAP2 SWAP1 POP JUMP INVALID LOG2 PUSH5 0x6970667358 0x22 SLT KECCAK256 0xCE EXP MSIZE 0xAB 0xBC 0x25 GASPRICE CALLDATASIZE MOD PUSH11 0xAD598950FECE2BD4CA0E61 STOP 0xA8 0xBD SWAP12 DUP16 0xDF 0xEB 0x5C DUP1 0x5E NOT PUSH5 0x736F6C6343 STOP ADDMOD EQ STOP CALLER "},"methodIdentifiers":{"addProposal(string)":"2fdae3c5","advancePhase()":"be25a718","didVote(address)":"354d91de","getProposal(uint256)":"c7f758a8","getProposalsCount()":"98e527d3","getVotesFor(uint256)":"d40b65eb","isRegistered(address)":"c3c5a547","owner()":"8da5cb5b","phase()":"b1c9fe6e","proposals(uint256)":"013cf08b","register()":"1aa3a008","renounceOwnership()":"715018a6","resetElection(string[])":"29fe4047","totalRegistered()":"927416c0","totalVotes()":"0d15fd77","transferOwnership(address)":"f2fde38b","vote(uint256)":"0121b93f","winningProposal()":"609ff1bd"}}}}}