{
  "_format": "hh-sol-artifact-1",
  "contractName": "Voting",
  "sourceName": "contracts/Voting.sol",
  "abi": [
    {
      "inputs": [
        {
          "internalType": "string[]",
          "name": "initialProposals",
          "type": "string[]"
        }
      ],
      "stateMutability": "nonpayable",
      "type": "constructor"
    },
    {
      "inputs": [
        {
          "internalType": "address",
          "name": "owner",
          "type": "address"
        }
      ],
      "name": "OwnableInvalidOwner",
      "type": "error"
    },
    {
      "inputs": [
        {
          "internalType": "address",
          "name": "account",
          "type": "address"
        }
      ],
      "name": "OwnableUnauthorizedAccount",
      "type": "error"
    },
    {
      "anonymous": false,
      "inputs": [
        {
          "indexed": true,
          "internalType": "address",
          "name": "previousOwner",
          "type": "address"
        },
        {
          "indexed": true,
          "internalType": "address",
          "name": "newOwner",
          "type": "address"
        }
      ],
      "name": "OwnershipTransferred",
      "type": "event"
    },
    {
      "anonymous": false,
      "inputs": [
        {
          "indexed": false,
          "internalType": "enum Voting.Phase",
          "name": "oldPhase",
          "type": "uint8"
        },
        {
          "indexed": false,
          "internalType": "enum Voting.Phase",
          "name": "newPhase",
          "type": "uint8"
        }
      ],
      "name": "PhaseChanged",
      "type": "event"
    },
    {
      "anonymous": false,
      "inputs": [
        {
          "indexed": true,
          "internalType": "uint256",
          "name": "index",
          "type": "uint256"
        },
        {
          "indexed": false,
          "internalType": "string",
          "name": "proposal",
          "type": "string"
        }
      ],
      "name": "ProposalAdded",
      "type": "event"
    },
    {
      "anonymous": false,
      "inputs": [
        {
          "indexed": true,
          "internalType": "address",
          "name": "voter",
          "type": "address"
        },
        {
          "indexed": true,
          "internalType": "uint256",
          "name": "proposalIndex",
          "type": "uint256"
        }
      ],
      "name": "VoteCast",
      "type": "event"
    },
    {
      "anonymous": false,
      "inputs": [
        {
          "indexed": true,
          "internalType": "address",
          "name": "voter",
          "type": "address"
        }
      ],
      "name": "VoterRegistered",
      "type": "event"
    },
    {
      "inputs": [
        {
          "internalType": "string",
          "name": "proposal",
          "type": "string"
        }
      ],
      "name": "addProposal",
      "outputs": [],
      "stateMutability": "nonpayable",
      "type": "function"
    },
    {
      "inputs": [],
      "name": "advancePhase",
      "outputs": [],
      "stateMutability": "nonpayable",
      "type": "function"
    },
    {
      "inputs": [
        {
          "internalType": "address",
          "name": "addr",
          "type": "address"
        }
      ],
      "name": "didVote",
      "outputs": [
        {
          "internalType": "bool",
          "name": "",
          "type": "bool"
        }
      ],
      "stateMutability": "view",
      "type": "function"
    },
    {
      "inputs": [
        {
          "internalType": "uint256",
          "name": "index",
          "type": "uint256"
        }
      ],
      "name": "getProposal",
      "outputs": [
        {
          "internalType": "string",
          "name": "",
          "type": "string"
        }
      ],
      "stateMutability": "view",
      "type": "function"
    },
    {
      "inputs": [],
      "name": "getProposalsCount",
      "outputs": [
        {
          "internalType": "uint256",
          "name": "",
          "type": "uint256"
        }
      ],
      "stateMutability": "view",
      "type": "function"
    },
    {
      "inputs": [
        {
          "internalType": "uint256",
          "name": "index",
          "type": "uint256"
        }
      ],
      "name": "getVotesFor",
      "outputs": [
        {
          "internalType": "uint256",
          "name": "",
          "type": "uint256"
        }
      ],
      "stateMutability": "view",
      "type": "function"
    },
    {
      "inputs": [
        {
          "internalType": "address",
          "name": "addr",
          "type": "address"
        }
      ],
      "name": "isRegistered",
      "outputs": [
        {
          "internalType": "bool",
          "name": "",
          "type": "bool"
        }
      ],
      "stateMutability": "view",
      "type": "function"
    },
    {
      "inputs": [],
      "name": "owner",
      "outputs": [
        {
          "internalType": "address",
          "name": "",
          "type": "address"
        }
      ],
      "stateMutability": "view",
      "type": "function"
    },
    {
      "inputs": [],
      "name": "phase",
      "outputs": [
        {
          "internalType": "enum Voting.Phase",
          "name": "",
          "type": "uint8"
        }
      ],
      "stateMutability": "view",
      "type": "function"
    },
    {
      "inputs": [
        {
          "internalType": "uint256",
          "name": "",
          "type": "uint256"
        }
      ],
      "name": "proposals",
      "outputs": [
        {
          "internalType": "string",
          "name": "",
          "type": "string"
        }
      ],
      "stateMutability": "view",
      "type": "function"
    },
    {
      "inputs": [],
      "name": "register",
      "outputs": [],
      "stateMutability": "nonpayable",
      "type": "function"
    },
    {
      "inputs": [],
      "name": "renounceOwnership",
      "outputs": [],
      "stateMutability": "nonpayable",
      "type": "function"
    },
    {
      "inputs": [
        {
          "internalType": "string[]",
          "name": "newProposals",
          "type": "string[]"
        }
      ],
      "name": "resetElection",
      "outputs": [],
      "stateMutability": "nonpayable",
      "type": "function"
    },
    {
      "inputs": [],
      "name": "totalRegistered",
      "outputs": [
        {
          "internalType": "uint256",
          "name": "",
          "type": "uint256"
        }
      ],
      "stateMutability": "view",
      "type": "function"
    },
    {
      "inputs": [],
      "name": "totalVotes",
      "outputs": [
        {
          "internalType": "uint256",
          "name": "",
          "type": "uint256"
        }
      ],
      "stateMutability": "view",
      "type": "function"
    },
    {
      "inputs": [
        {
          "internalType": "address",
          "name": "newOwner",
          "type": "address"
        }
      ],
      "name": "transferOwnership",
      "outputs": [],
      "stateMutability": "nonpayable",
      "type": "function"
    },
    {
      "inputs": [
        {
          "internalType": "uint256",
          "name": "proposalIndex",
          "type": "uint256"
        }
      ],
      "name": "vote",
      "outputs": [],
      "stateMutability": "nonpayable",
      "type": "function"
    },
    {
      "inputs": [],
      "name": "winningProposal",
      "outputs": [
        {
          "internalType": "uint256",
          "name": "winnerIndex",
          "type": "uint256"
        },
        {
          "internalType": "uint256",
          "name": "winnerVotes",
          "type": "uint256"
        }
      ],
      "stateMutability": "view",
      "type": "function"
    }
  ],
  "bytecode": "0x60806040523480156200001157600080fd5b5060405162002a2d38038062002a2d833981810160405281019062000037919062000515565b33600073ffffffffffffffffffffffffffffffffffffffff168173ffffffffffffffffffffffffffffffffffffffff1603620000ad5760006040517f1e4fbdf7000000000000000000000000000000000000000000000000000000008152600401620000a49190620005ab565b60405180910390fd5b620000be81620001c260201b60201c565b5060008060146101000a81548160ff02191690836002811115620000e757620000e6620005c8565b5b021790555060005b8151811015620001ba576001828281518110620001115762000110620005f7565b5b60200260200101519080600181540180825580915050600190039060005260206000200160009091909190915090816200014c919062000871565b50807ff970aa486598017b8116c2beb18c50d4584ecbc3c688817f59b26796725f31bf838381518110620001855762000184620005f7565b5b60200260200101516040516200019c9190620009aa565b60405180910390a28080620001b190620009fd565b915050620000ef565b505062000a4a565b60008060009054906101000a900473ffffffffffffffffffffffffffffffffffffffff169050816000806101000a81548173ffffffffffffffffffffffffffffffffffffffff021916908373ffffffffffffffffffffffffffffffffffffffff1602179055508173ffffffffffffffffffffffffffffffffffffffff168173ffffffffffffffffffffffffffffffffffffffff167f8be0079c531659141344cd1fd0a4f28419497f9722a3daafe3b4186f6b6457e060405160405180910390a35050565b6000604051905090565b600080fd5b600080fd5b600080fd5b6000601f19601f8301169050919050565b7f4e487b7100000000000000000000000000000000000000000000000000000000600052604160045260246000fd5b620002ea826200029f565b810181811067ffffffffffffffff821117156200030c576200030b620002b0565b5b80604052505050565b60006200032162000286565b90506200032f8282620002df565b919050565b600067ffffffffffffffff821115620003525762000351620002b0565b5b602082029050602081019050919050565b600080fd5b600080fd5b600067ffffffffffffffff8211156200038b576200038a620002b0565b5b62000396826200029f565b9050602081019050919050565b60005b83811015620003c3578082015181840152602081019050620003a6565b60008484015250505050565b6000620003e6620003e0846200036d565b62000315565b90508281526020810184848401111562000405576200040462000368565b5b62000412848285620003a3565b509392505050565b600082601f8301126200043257620004316200029a565b5b815162000444848260208601620003cf565b91505092915050565b6000620004646200045e8462000334565b62000315565b905080838252602082019050602084028301858111156200048a576200048962000363565b5b835b81811015620004d857805167ffffffffffffffff811115620004b357620004b26200029a565b5b808601620004c289826200041a565b855260208501945050506020810190506200048c565b5050509392505050565b600082601f830112620004fa57620004f96200029a565b5b81516200050c8482602086016200044d565b91505092915050565b6000602082840312156200052e576200052d62000290565b5b600082015167ffffffffffffffff8111156200054f576200054e62000295565b5b6200055d84828501620004e2565b91505092915050565b600073ffffffffffffffffffffffffffffffffffffffff82169050919050565b6000620005938262000566565b9050919050565b620005a58162000586565b82525050565b6000602082019050620005c260008301846200059a565b92915050565b7f4e487b7100000000000000000000000000000000000000000000000000000000600052602160045260246000fd5b7f4e487b7100000000000000000000000000000000000000000000000000000000600052603260045260246000fd5b600081519050919050565b7f4e487b7100000000000000000000000000000000000000000000000000000000600052602260045260246000fd5b600060028204905060018216806200067957607f821691505b6020821081036200068f576200068e62000631565b5b50919050565b60008190508160005260206000209050919050565b60006020601f8301049050919050565b600082821b905092915050565b600060088302620006f97fffffffffffffffffffffffffffffffffffffffffffffffffffffffffffffffff82620006ba565b620007058683620006ba565b95508019841693508086168417925050509392505050565b6000819050919050565b6000819050919050565b6000620007526200074c62000746846200071d565b62000727565b6200071d565b9050919050565b6000819050919050565b6200076e8362000731565b620007866200077d8262000759565b848454620006c7565b825550505050565b600090565b6200079d6200078e565b620007aa81848462000763565b505050565b5b81811015620007d257620007c660008262000793565b600181019050620007b0565b5050565b601f8211156200082157620007eb8162000695565b620007f684620006aa565b8101602085101562000806578190505b6200081e6200081585620006aa565b830182620007af565b50505b505050565b600082821c905092915050565b6000620008466000198460080262000826565b1980831691505092915050565b600062000861838362000833565b9150826002028217905092915050565b6200087c8262000626565b67ffffffffffffffff811115620008985762000897620002b0565b5b620008a4825462000660565b620008b1828285620007d6565b600060209050601f831160018114620008e95760008415620008d4578287015190505b620008e0858262000853565b86555062000950565b601f198416620008f98662000695565b60005b828110156200092357848901518255600182019150602085019450602081019050620008fc565b868310156200094357848901516200093f601f89168262000833565b8355505b6001600288020188555050505b505050505050565b600082825260208201905092915050565b6000620009768262000626565b62000982818562000958565b935062000994818560208601620003a3565b6200099f816200029f565b840191505092915050565b60006020820190508181036000830152620009c6818462000969565b905092915050565b7f4e487b7100000000000000000000000000000000000000000000000000000000600052601160045260246000fd5b600062000a0a826200071d565b91507fffffffffffffffffffffffffffffffffffffffffffffffffffffffffffffffff820362000a3f5762000a3e620009ce565b5b600182019050919050565b611fd38062000a5a6000396000f3fe608060405234801561001057600080fd5b50600436106101165760003560e01c80638da5cb5b116100a2578063be25a71811610071578063be25a71814610298578063c3c5a547146102a2578063c7f758a8146102d2578063d40b65eb14610302578063f2fde38b1461033257610116565b80638da5cb5b14610220578063927416c01461023e57806398e527d31461025c578063b1c9fe6e1461027a57610116565b806329fe4047116100e957806329fe40471461018f5780632fdae3c5146101ab578063354d91de146101c7578063609ff1bd146101f7578063715018a61461021657610116565b80630121b93f1461011b578063013cf08b146101375780630d15fd77146101675780631aa3a00814610185575b600080fd5b6101356004803603810190610130919061134e565b61034e565b005b610151600480360381019061014c919061134e565b610606565b60405161015e919061140b565b60405180910390f35b61016f6106b2565b60405161017c919061143c565b60405180910390f35b61018d6106b8565b005b6101a960048036038101906101a491906114bc565b610872565b005b6101c560048036038101906101c0919061155f565b610a7a565b005b6101e160048036038101906101dc919061160a565b610b86565b6040516101ee9190611652565b60405180910390f35b6101ff610bdc565b60405161020d92919061166d565b60405180910390f35b61021e610d07565b005b610228610d1b565b60405161023591906116a5565b60405180910390f35b610246610d44565b604051610253919061143c565b60405180910390f35b610264610d4a565b604051610271919061143c565b60405180910390f35b610282610d57565b60405161028f9190611737565b60405180910390f35b6102a0610d6a565b005b6102bc60048036038101906102b7919061160a565b610ee2565b6040516102c99190611652565b60405180910390f35b6102ec60048036038101906102e7919061134e565b610f38565b6040516102f9919061140b565b60405180910390f35b61031c6004803603810190610317919061134e565b61102f565b604051610329919061143c565b60405180910390f35b61034c6004803603810190610347919061160a565b611093565b005b6001806002811115610363576103626116c0565b5b600060149054906101000a900460ff166002811115610385576103846116c0565b5b146103c5576040517f08c379a00000000000000000000000000000000000000000000000000000000081526004016103bc9061179e565b60405180910390fd5b600260003373ffffffffffffffffffffffffffffffffffffffff1673ffffffffffffffffffffffffffffffffffffffff16815260200190815260200160002060009054906101000a900460ff16610451576040517f08c379a00000000000000000000000000000000000000000000000000000000081526004016104489061180a565b60405180910390fd5b600360003373ffffffffffffffffffffffffffffffffffffffff1673ffffffffffffffffffffffffffffffffffffffff16815260200190815260200160002060009054906101000a900460ff16156104de576040517f08c379a00000000000000000000000000000000000000000000000000000000081526004016104d590611876565b60405180910390fd5b6001805490508210610525576040517f08c379a000000000000000000000000000000000000000000000000000000000815260040161051c906118e2565b60405180910390fd5b6001600360003373ffffffffffffffffffffffffffffffffffffffff1673ffffffffffffffffffffffffffffffffffffffff16815260200190815260200160002060006101000a81548160ff0219169083151502179055506004600083815260200190815260200160002060008154809291906105a190611931565b9190505550600660008154809291906105b990611931565b9190505550813373ffffffffffffffffffffffffffffffffffffffff167fa36cc2bebb74db33e9f88110a07ef56e1b31b24b4c4f51b54b1664266e29f45b60405160405180910390a35050565b6001818154811061061657600080fd5b906000526020600020016000915090508054610631906119a8565b80601f016020809104026020016040519081016040528092919081815260200182805461065d906119a8565b80156106aa5780601f1061067f576101008083540402835291602001916106aa565b820191906000526020600020905b81548152906001019060200180831161068d57829003601f168201915b505050505081565b60065481565b60008060028111156106cd576106cc6116c0565b5b600060149054906101000a900460ff1660028111156106ef576106ee6116c0565b5b1461072f576040517f08c379a00000000000000000000000000000000000000000000000000000000081526004016107269061179e565b60405180910390fd5b600260003373ffffffffffffffffffffffffffffffffffffffff1673ffffffffffffffffffffffffffffffffffffffff16815260200190815260200160002060009054906101000a900460ff16156107bc576040517f08c379a00000000000000000000000000000000000000000000000000000000081526004016107b390611a25565b60405180910390fd5b6001600260003373ffffffffffffffffffffffffffffffffffffffff1673ffffffffffffffffffffffffffffffffffffffff16815260200190815260200160002060006101000a81548160ff0219169083151502179055506005600081548092919061082790611931565b91905055503373ffffffffffffffffffffffffffffffffffffffff167fb6be2187d059cc2a55fe29e0e503b566e1e0f8c8780096e185429350acffd3dd60405160405180910390a250565b61087a611119565b600280600281111561088f5761088e6116c0565b5b600060149054906101000a900460ff1660028111156108b1576108b06116c0565b5b146108f1576040517f08c379a00000000000000000000000000000000000000000000000000000000081526004016108e89061179e565b60405180910390fd5b600160006108ff919061126c565b6000600581905550600060068190555060005b838390508110156109ee57600184848381811061093257610931611a45565b5b90506020028101906109449190611a83565b9091806001815401808255809150506001900390600052602060002001600090919290919290919290919250918261097d929190611ccc565b50807ff970aa486598017b8116c2beb18c50d4584ecbc3c688817f59b26796725f31bf8585848181106109b3576109b2611a45565b5b90506020028101906109c59190611a83565b6040516109d3929190611dd8565b60405180910390a280806109e690611931565b915050610912565b5060008060149054906101000a900460ff16905060008060146101000a81548160ff02191690836002811115610a2757610a266116c0565b5b02179055507feeb345fea22465c927333e05d324ee5b476597701d8be7e5d9aacc60e7aefbaf81600060149054906101000a900460ff16604051610a6c929190611dfc565b60405180910390a150505050565b610a82611119565b6000806002811115610a9757610a966116c0565b5b600060149054906101000a900460ff166002811115610ab957610ab86116c0565b5b14610af9576040517f08c379a0000000000000000000000000000000000000000000000000000000008152600401610af09061179e565b60405180910390fd5b6001838390918060018154018082558091505060019003906000526020600020016000909192909192909192909192509182610b36929190611ccc565b5060018080549050610b489190611e25565b7ff970aa486598017b8116c2beb18c50d4584ecbc3c688817f59b26796725f31bf8484604051610b79929190611dd8565b60405180910390a2505050565b6000600360008373ffffffffffffffffffffffffffffffffffffffff1673ffffffffffffffffffffffffffffffffffffffff16815260200190815260200160002060009054906101000a900460ff169050919050565b6000806002806002811115610bf457610bf36116c0565b5b600060149054906101000a900460ff166002811115610c1657610c156116c0565b5b14610c56576040517f08c379a0000000000000000000000000000000000000000000000000000000008152600401610c4d9061179e565b60405180910390fd5b600060018054905011610c9e576040517f08c379a0000000000000000000000000000000000000000000000000000000008152600401610c9590611ea5565b60405180910390fd5b60008060005b600180549050811015610cf9578260046000838152602001908152602001600020541115610ce657600460008281526020019081526020016000205492508091505b8080610cf190611931565b915050610ca4565b508082945094505050509091565b610d0f611119565b610d1960006111a0565b565b60008060009054906101000a900473ffffffffffffffffffffffffffffffffffffffff16905090565b60055481565b6000600180549050905090565b600060149054906101000a900460ff1681565b610d72611119565b60008060149054906101000a900460ff16905060006002811115610d9957610d986116c0565b5b600060149054906101000a900460ff166002811115610dbb57610dba6116c0565b5b03610df0576001600060146101000a81548160ff02191690836002811115610de657610de56116c0565b5b0217905550610e97565b60016002811115610e0457610e036116c0565b5b600060149054906101000a900460ff166002811115610e2657610e256116c0565b5b03610e5b576002600060146101000a81548160ff02191690836002811115610e5157610e506116c0565b5b0217905550610e96565b6040517f08c379a0000000000000000000000000000000000000000000000000000000008152600401610e8d90611f11565b60405180910390fd5b5b7feeb345fea22465c927333e05d324ee5b476597701d8be7e5d9aacc60e7aefbaf81600060149054906101000a900460ff16604051610ed7929190611dfc565b60405180910390a150565b6000600260008373ffffffffffffffffffffffffffffffffffffffff1673ffffffffffffffffffffffffffffffffffffffff16815260200190815260200160002060009054906101000a900460ff169050919050565b60606001805490508210610f81576040517f08c379a0000000000000000000000000000000000000000000000000000000008152600401610f7890611f7d565b60405180910390fd5b60018281548110610f9557610f94611a45565b5b906000526020600020018054610faa906119a8565b80601f0160208091040260200160405190810160405280929190818152602001828054610fd6906119a8565b80156110235780601f10610ff857610100808354040283529160200191611023565b820191906000526020600020905b81548152906001019060200180831161100657829003601f168201915b50505050509050919050565b60006001805490508210611078576040517f08c379a000000000000000000000000000000000000000000000000000000000815260040161106f90611f7d565b60405180910390fd5b60046000838152602001908152602001600020549050919050565b61109b611119565b600073ffffffffffffffffffffffffffffffffffffffff168173ffffffffffffffffffffffffffffffffffffffff160361110d5760006040517f1e4fbdf700000000000000000000000000000000000000000000000000000000815260040161110491906116a5565b60405180910390fd5b611116816111a0565b50565b611121611264565b73ffffffffffffffffffffffffffffffffffffffff1661113f610d1b565b73ffffffffffffffffffffffffffffffffffffffff161461119e57611162611264565b6040517f118cdaa700000000000000000000000000000000000000000000000000000000815260040161119591906116a5565b60405180910390fd5b565b60008060009054906101000a900473ffffffffffffffffffffffffffffffffffffffff169050816000806101000a81548173ffffffffffffffffffffffffffffffffffffffff021916908373ffffffffffffffffffffffffffffffffffffffff1602179055508173ffffffffffffffffffffffffffffffffffffffff168173ffffffffffffffffffffffffffffffffffffffff167f8be0079c531659141344cd1fd0a4f28419497f9722a3daafe3b4186f6b6457e060405160405180910390a35050565b600033905090565b508054600082559060005260206000209081019061128a919061128d565b50565b5b808211156112ad57600081816112a491906112b1565b5060010161128e565b5090565b5080546112bd906119a8565b6000825580601f106112cf57506112ee565b601f0160209004906000526020600020908101906112ed91906112f1565b5b50565b5b8082111561130a5760008160009055506001016112f2565b5090565b600080fd5b600080fd5b6000819050919050565b61132b81611318565b811461133657600080fd5b50565b60008135905061134881611322565b92915050565b6000602082840312156113645761136361130e565b5b600061137284828501611339565b91505092915050565b600081519050919050565b600082825260208201905092915050565b60005b838110156113b557808201518184015260208101905061139a565b60008484015250505050565b6000601f19601f8301169050919050565b60006113dd8261137b565b6113e78185611386565b93506113f7818560208601611397565b611400816113c1565b840191505092915050565b6000602082019050818103600083015261142581846113d2565b905092915050565b61143681611318565b82525050565b6000602082019050611451600083018461142d565b92915050565b600080fd5b600080fd5b600080fd5b60008083601f84011261147c5761147b611457565b5b8235905067ffffffffffffffff8111156114995761149861145c565b5b6020830191508360208202830111156114b5576114b4611461565b5b9250929050565b600080602083850312156114d3576114d261130e565b5b600083013567ffffffffffffffff8111156114f1576114f0611313565b5b6114fd85828601611466565b92509250509250929050565b60008083601f84011261151f5761151e611457565b5b8235905067ffffffffffffffff81111561153c5761153b61145c565b5b60208301915083600182028301111561155857611557611461565b5b9250929050565b600080602083850312156115765761157561130e565b5b600083013567ffffffffffffffff81111561159457611593611313565b5b6115a085828601611509565b92509250509250929050565b600073ffffffffffffffffffffffffffffffffffffffff82169050919050565b60006115d7826115ac565b9050919050565b6115e7816115cc565b81146115f257600080fd5b50565b600081359050611604816115de565b92915050565b6000602082840312156116205761161f61130e565b5b600061162e848285016115f5565b91505092915050565b60008115159050919050565b61164c81611637565b82525050565b60006020820190506116676000830184611643565b92915050565b6000604082019050611682600083018561142d565b61168f602083018461142d565b9392505050565b61169f816115cc565b82525050565b60006020820190506116ba6000830184611696565b92915050565b7f4e487b7100000000000000000000000000000000000000000000000000000000600052602160045260246000fd5b60038110611700576116ff6116c0565b5b50565b6000819050611711826116ef565b919050565b600061172182611703565b9050919050565b61173181611716565b82525050565b600060208201905061174c6000830184611728565b92915050565b7f496e76616c696420706861736500000000000000000000000000000000000000600082015250565b6000611788600d83611386565b915061179382611752565b602082019050919050565b600060208201905081810360008301526117b78161177b565b9050919050565b7f4e6f742072656769737465726564000000000000000000000000000000000000600082015250565b60006117f4600e83611386565b91506117ff826117be565b602082019050919050565b60006020820190508181036000830152611823816117e7565b9050919050565b7f416c726561647920766f74656400000000000000000000000000000000000000600082015250565b6000611860600d83611386565b915061186b8261182a565b602082019050919050565b6000602082019050818103600083015261188f81611853565b9050919050565b7f496e76616c69642070726f706f73616c00000000000000000000000000000000600082015250565b60006118cc601083611386565b91506118d782611896565b602082019050919050565b600060208201905081810360008301526118fb816118bf565b9050919050565b7f4e487b7100000000000000000000000000000000000000000000000000000000600052601160045260246000fd5b600061193c82611318565b91507fffffffffffffffffffffffffffffffffffffffffffffffffffffffffffffffff820361196e5761196d611902565b5b600182019050919050565b7f4e487b7100000000000000000000000000000000000000000000000000000000600052602260045260246000fd5b600060028204905060018216806119c057607f821691505b6020821081036119d3576119d2611979565b5b50919050565b7f416c726561647920726567697374657265640000000000000000000000000000600082015250565b6000611a0f601283611386565b9150611a1a826119d9565b602082019050919050565b60006020820190508181036000830152611a3e81611a02565b9050919050565b7f4e487b7100000000000000000000000000000000000000000000000000000000600052603260045260246000fd5b600080fd5b600080fd5b600080fd5b60008083356001602003843603038112611aa057611a9f611a74565b5b80840192508235915067ffffffffffffffff821115611ac257611ac1611a79565b5b602083019250600182023603831315611ade57611add611a7e565b5b509250929050565b600082905092915050565b7f4e487b7100000000000000000000000000000000000000000000000000000000600052604160045260246000fd5b60008190508160005260206000209050919050565b60006020601f8301049050919050565b600082821b905092915050565b600060088302611b827fffffffffffffffffffffffffffffffffffffffffffffffffffffffffffffffff82611b45565b611b8c8683611b45565b95508019841693508086168417925050509392505050565b6000819050919050565b6000611bc9611bc4611bbf84611318565b611ba4565b611318565b9050919050565b6000819050919050565b611be383611bae565b611bf7611bef82611bd0565b848454611b52565b825550505050565b600090565b611c0c611bff565b611c17818484611bda565b505050565b5b81811015611c3b57611c30600082611c04565b600181019050611c1d565b5050565b601f821115611c8057611c5181611b20565b611c5a84611b35565b81016020851015611c69578190505b611c7d611c7585611b35565b830182611c1c565b50505b505050565b600082821c905092915050565b6000611ca360001984600802611c85565b1980831691505092915050565b6000611cbc8383611c92565b9150826002028217905092915050565b611cd68383611ae6565b67ffffffffffffffff811115611cef57611cee611af1565b5b611cf982546119a8565b611d04828285611c3f565b6000601f831160018114611d335760008415611d21578287013590505b611d2b8582611cb0565b865550611d93565b601f198416611d4186611b20565b60005b82811015611d6957848901358255600182019150602085019450602081019050611d44565b86831015611d865784890135611d82601f891682611c92565b8355505b6001600288020188555050505b50505050505050565b82818337600083830152505050565b6000611db78385611386565b9350611dc4838584611d9c565b611dcd836113c1565b840190509392505050565b60006020820190508181036000830152611df3818486611dab565b90509392505050565b6000604082019050611e116000830185611728565b611e1e6020830184611728565b9392505050565b6000611e3082611318565b9150611e3b83611318565b9250828203905081811115611e5357611e52611902565b5b92915050565b7f4e6f2070726f706f73616c730000000000000000000000000000000000000000600082015250565b6000611e8f600c83611386565b9150611e9a82611e59565b602082019050919050565b60006020820190508181036000830152611ebe81611e82565b9050919050565b7f416c726561647920656e64656400000000000000000000000000000000000000600082015250565b6000611efb600d83611386565b9150611f0682611ec5565b602082019050919050565b60006020820190508181036000830152611f2a81611eee565b9050919050565b7f496e76616c696420696e64657800000000000000000000000000000000000000600082015250565b6000611f67600d83611386565b9150611f7282611f31565b602082019050919050565b60006020820190508181036000830152611f9681611f5a565b905091905056fea2646970667358221220ce0a59abbc253a36066aad598950fece2bd4ca0e6100a8bd9b8fdfeb5c805e1964736f6c63430008140033",
  "linkReferences": {},
  "deployedLinkReferences": {}
}